:020000040001F9
:10C00000584600208DC4010095C4010097C401006A
:10C0100099C401009BC401009DC401000000000000
:10C020000000000000000000000000009FC40100AC
:10C03000A1C4010000000000A3C40100A5C40100C8
:10C04000A7C40100A7C4010081C90100A7C4010061
:10C05000A7C40100A7C401001DC50100A7C40100B9
:10C06000A7C40100A7C40100A7C40100A7C4010020
:10C07000A7C40100A7C40100A7C40100A7C4010010
:10C08000A7C40100C9C60100A7C40100A7C40100DC
:10C09000EDC60100A7C40100F1C60100A7C401005C
:10C0A000A7C40100A7C40100A7C40100A7C40100E0
:10C0B000A7C40100A7C401000000000000000000A8
:10C0C000A7C40100A7C40100A7C40100A7C40100C0
:10C0D000A7C40100A7C40100A7C40100000000001C
:10C0E0000000000000000000000000000000000050
:10C0F0000000000000000000000000000000000040
:10C10000000000000000000000000000000000002F
:10C11000000000000000000000000000000000001F
:10C40000DFF80CD000F078F800480047F9DC0100B4
:10C4100058460020401E00BF00BF00BF00BF00BF45
:10C4200000BF00BF00BF00BF00BF00BF00BF00BF14
:10C4300000BF00BF00BF00BF00BF00BF00BF00BF04
:10C4400000BF00BF00BF00BF00BF00BF00BF00BFF4
:10C4500000BF00BF00BF00BF00BF00BF00BF00BFE4
:10C4600000BF00BF00BF00BF00BF00BF00BF00BFD4
:10C4700000BF00BF00BF00BF00BF00BF00BF00BFC4
:10C4800000BF00BF00BFC5D170470000064880470D
:10C4900006480047FEE7FEE7FEE7FEE7FEE7FEE7A9
:10C4A000FEE7FEE7FEE7FEE715C7010001C4010055
:10C4B00040EA01039B0703D009E008C9121F08C026
:10C4C000042AFAD203E011F8013B00F8013B521EA6
:10C4D000F9D27047D2B201E000F8012B491EFBD21D
:10C4E00070470022F6E710B513460A46044619467F
:10C4F000FFF7F0FF204610BD064C074D06E0E06850
:10C5000040F0010394E8070098471034AC42F6D39A
:10C51000FFF77AFF98EA0100B8EA01002DE9FC5F15
:10C520000025DFF83491A8464FF4807601242F4689
:10C53000304601F05DFE38B1D9F80403204203D043
:10C54000304601F04BFE2543361D64007F1CB6B219
:10C55000082FEDD34FF4BE74204601F049FE38B1E8
:10C56000204601F03BFE3D4845F00045D0F80080F4
:10C570003B4E15F0FF0F14D0012700242F420CD0A2
:10C5800009EB8401D1F81005D1F81015C0F304208F
:10C5900056F82420C1F3014190477F00641C082C09
:10C5A000ECD3002D56DA00200190401E4CE07019AB
:10C5B00010F8501F90F9000021F0C004401C38D042
:10C5C000012000FA04FA1AEA090F32D04FEA911B4F
:10C5D000204601F0A5F856F82000009010B9BBF1F4
:10C5E000030F26D15146BBF1030F02D10198084336
:10C5F0000190A00000F1A040D0F800071AEA080F4F
:10C60000C0F3014002D0022802D012E0032810D16A
:10C61000BBF1030F07D102281AD00221204601F0F6
:10C62000CEFD7F1CFFB2009818B1009A59462046F3
:10C6300090476D1C042DBAD3002F0BD0074800681B
:10C64000404507D080460198002781463D46AEE729
:10C650000321E3E7BDE8FC9F0060004010050050A7
:10C66000B025002000F01F02012191404009800008
:10C6700000F1E020C0F88012704700F01F02012195
:10C6800091404009800000F1E020C0F8001170479F
:10C6900000F01F02012191404009800000F1E020DC
:10C6A000C0F8001270474907090E002806DA00F0AA
:10C6B0000F0000F1E02080F8141D704700F1E02029
:10C6C00080F800147047000007480021C0F84011AE
:10C6D000C0F84411C0F84811C0F84C11C0F800115E
:10C6E000C0F8041101F080BF0010014001F018BF34
:10C6F000074810B5406830B18047002807D0BDE832
:10C70000104000F02FBBBDE8104001F057B910BD3C
:10C71000FC20002070B58D480023021D0178101DFB
:10C720000124062907D115782D0704D10578C5F312
:10C730000315032D02D0062904D00FE0854E844D49
:10C7400075670EE015782D0708D10578C5F3031538
:10C75000032D06D0042D04D0052D02D0062909D0C2
:10C7600010E04FF08055D5F844527B4EC5F342356A
:10C77000356002E015782D0704D10578C5F303155F
:10C78000032D02D0062906D011E0744D2E6826F044
:10C7900080762E600EE015782D0708D10578C5F358
:10C7A0000315032D06D0042D04D0052D02D0062933
:10C7B0000AD011E04FF08045C5F80C31C5F81031B2
:10C7C000654D2D1F2B6002E015782D0704D10578EB
:10C7D000C5F30315032D02D0062905D00CE05E4AEF
:10C7E0000321643211600AE015782D0704D1057821
:10C7F000C5F30315032D02D006290DD06AE0584A6F
:10C8000005211160564978310C60554908310B609B
:10C810003F21121D116002E0117809075AD10078FA
:10C82000C0F30310052855D14E4800684E490860F2
:10C830004C48001D0068091D08604A48083000681F
:10C84000091D086047480C300068091D086045480C
:10C8500010300068091D0860424814300068091D46
:10C8600008604048183000683F49203108603D4862
:10C870001C300068091D08603A4820300068091D16
:10C880000860384824300068091D086035482830A1
:10C890000068091D086033482C300068091D0860D5
:10C8A0003048303000683049403108602D4834301D
:10C8B0000068091D08602B4838300068091D0860B1
:10C8C00028483C300068091D086026484030006850
:10C8D000091D086021487438016841F47001016045
:10C8E000BFF34F8FBFF36F8F4FF01021D1F80002CD
:10C8F000002803DBD1F80402002822DA1B4A146066
:10C900001B480468002CFCD01524C1F800420568BF
:10C91000002DFCD0C1F8044201680029FCD013604E
:10C9200001680029FCD0BFF34F8F0C48F038016834
:10C93000104A01F4E06111430160BFF34F8F00BF63
:10C94000FDE70E490C48086070BD0000E00F00F0E4
:10C950000DF0ADBA00C007403C050040FCED00E022
:10C96000105600400404001020C5004004E50140BA
:10C9700000E401400400FA050090D00310210020DB
:10C980000348007F08B101F019BF01F093BE000019
:10C990000826002002E008C8121F08C1002AFAD1A8
:10C9A00070477047002001E001C1121F002AFBD12F
:10C9B00070472DE9FC5F0025168807461580406BFF
:10C9C00014468946A8464FF00C0A11234FF0020B7B
:10C9D00098B101784846032E48D380F800B02288E9
:10C9E000521C92B2228083542288521C92B222801E
:10C9F00009F802102088401C20803A6BDAB12088A8
:10CA0000494600F11205B54230D80B542088102356
:10CA1000401C80B220800B542088401C20800F20B6
:10CA20002388155C401ECD54238840B25B1C2380B4
:10CA30000028F5DA454697F82E0030B133462246F5
:10CA4000494601F001F8050011D197F82D0030B1E9
:10CA500032462146484600F0F5FA050007D1B8787D
:10CA600020B32088C846001DB04202D95046BDE818
:10CA7000FC9F684679DF0028F9D12188032008F857
:10CA8000010020881921401C80B2208008F8001085
:10CA90002088401C80B2208000EB0801BDF8000017
:10CAA00001F0F8FE0146208808442080F878B8B1EB
:10CAB000228897F90310D31C4846B342D6D800F811
:10CAC00002B022880123521C92B222808354228811
:10CAD000521C92B2228009F802102088401C20804B
:10CAE0007868B8B1218890F90020CB1C4846B34241
:10CAF000BCD800F801B021880A23491C89B22180E2
:10CB000043542188491C89B2218009F801202088DA
:10CB1000401C2080388950B1CDE900464B460622A2
:10CB2000022107F1080001F01EFF05009FD1388A9D
:10CB300050B1CDE900464B460722032107F1100012
:10CB400001F011FF050092D1388B50B1CDE90046BC
:10CB50004B461522142107F1180001F004FF0500CF
:10CB600085D1386A30B133462246494600F036FE58
:10CB70000500DBD1786A30B133462246494601F0E0
:10CB800061F90500D2D197F82C0038B1334622461E
:10CB90004946384601F03CFC0500C7D1387838B129
:10CBA000334622464946384601F07EF90500BDD19C
:10CBB00028465CE7102262F30F0010B5164AA0B0B9
:10CBC00014495268CDE91E014FF6AA60ADF8740011
:10CBD0001C9238216846FFF784FC02208DF8000083
:10CBE00001248DF8024006208DF803001DA80A904C
:10CBF00038210EA8FFF775FC1CA81390ADF848402B
:10CC00000EA9684600F07CF9002801D000F0AAF8CF
:10CC100020B010BD8C20002034EA010010B586B091
:10CC200018216846FFF75DFC00244020ADF8100095
:10CC30008DF8004001948DF80840ADF81240684628
:10CC400073DF08B100F08EF803494FF480200860CC
:10CC5000081F046006B010BD0C05005006480068AF
:10CC60004FF40021044A8143121D1160111D00F48C
:10CC700000200860704700000405005070B50024D3
:10CC8000084D05E0686810F8340001F077F9641C7D
:10CC900028788442F6D304480068BDE8704000F06C
:10CCA00007B90000C820002090EA010070B50024F8
:10CCB000064D06E06868012110F8340001F082F9A1
:10CCC000641C28788442F5D3002070BDC820002061
:10CCD000F8B515460C460646052A01D20720F8BDD0
:10CCE00001F052FA18B901F025FA0028F7D11049DD
:10CCF00000204E600C70C1E902500E4D08610DE03D
:10CD000006EBC4006968009181788DF80110007805
:10CD1000094A694601F0A8F90028E0D1641EE4B28E
:10CD2000EED2BDE8F840054A0021024800F026B8DE
:10CD3000C820002090EA010065D90100C5D8010093
:10CD4000BFF34F8F05480168054A01F4E0611143C4
:10CD50000160BFF34F8F00BFFDE700000CED00E066
:10CD60000400FA050EB500210091CDE901106A46D4
:10CD700044F20100FFF7E4FF0EBD0000074B9B6883
:10CD800023B12AB120B10068037C1BB10820704791
:10CD9000072070474174426100207047DC2000206A
:10CDA0002DE9F0478046994614460F4690074FF00C
:10CDB000000634D11C4D8CB301F098FA0320C5F85D
:10CDC0001490287004F11800002107EB4703AC60B1
:10CDD00004EBC102491C167056709770506000EB4E
:10CDE000C3000329F4DBEE606E70AE701420FFF711
:10CDF00039FC06211420FFF756FC1420FFF73DFCF8
:10CE00000A49C1F8008006211120FFF74CFC0748B1
:10CE1000001F006828610020BDE8F08701E00720BE
:10CE2000FAE7AE60FBE70000DC20002008150140B7
:10CE30002DE9F843DFF870900D461746D9F8081031
:10CE4000044651B34CB3052D02D20720BDE8F88348
:10CE5000606910B3607C012821D0002601F050FDEC
:10CE6000D9F80810804601EBC800694601F067FD5B
:10CE7000B8B1012100F8041B0C4910C0096880E812
:10CE8000E200D9F8081001EBC8009DF800104170CD
:10CE90001420FFF7FDFB0020D8E70820D6E72E4638
:10CEA000DCE70420D2E70000DC200020041501406C
:10CEB000F8B5124E0446B168E1B1DCB16069C8B1A1
:10CEC0000027277401F01CFD0546B068694600EB99
:10CED000C50001F034FD78B1022101704460B068F2
:10CEE0009DF8001000EBC50041701420FFF7D0FB47
:10CEF0003846F8BD0820F8BD0420F8BDDC2000202D
:10CF0000F0B50C4693B01F210726ADF80010ADF820
:10CF10000410002750B1C17849070DD56A4602A90F
:10CF2000FFF747FD002808D102AD02E00025ADF86B
:10CF300000706CB1E07810B1304613B0F0BD01AABA
:10CF40000AA92046FFF735FD0028F6D10AAA02E01B
:10CF50000022ADF80470BDF80400C3B2BDF80000B3
:10CF6000C1B2284672DFE8E770B5054601461C22CB
:10CF70000F48FFF79DFA0F4C00262670286830B145
:10CF8000016861604068A060201D7ADF02E0094806
:10CF9000001D7BDF00280AD14FF6FF7060806670AD
:10CFA000BDE87040044A00210448FFF7E7BE70BDA9
:10CFB00094250020B4200020A1E801007CEA0100B3
:10CFC00070B51E4C068800251B49E289102E15D02D
:10CFD0001B4B112E1CD0122E29D0502E17D130F8F9
:10CFE000061F914213D14189022910D1007B10F014
:10CFF000010F11D0BDE8704000F036BC83884B8033
:10D000008369CB60C06908614D70002AF2D070BDA1
:10D010004FF6FF7048804D701868FFF749FF0028F1
:10D02000F5D0A1690029F2D0BDE8704008478268B8
:10D03000CA60C0680861DDE7B420002094250020A4
:10D040007CEA01007CB5054608880C460930904210
:10D0500001D90C207CBD684671DF0028FAD12188F7
:10D060000820685420881B21401C80B2208029544D
:10D070002088401C80B220802844DDF80110016027
:10D08000BDF8051081802088801D80B220809DF829
:10D09000001001B1012129542088401C208000206B
:10D0A0007CBD000010B5044601F0BAF82046FFF739
:10D0B00087FF2146BDE81040014800F031B800006C
:10D0C000EC24002030B5044685B04FF6FF70A082F6
:10D0D000124B08680D46A0610FCB8DE80F0004F1DC
:10D0E0001201684663DF002816D1A07C8DF812007B
:10D0F00041F22350ADF81000224604A90120A0DF20
:10D10000002809D12946204600F054FA002803D10E
:10D110002946204600F0C2FC05B030BD80EA01007F
:10D120000A88102A10D0112A10D0502A11D131F8B3
:10D13000062F43889A420CD14A89012A09D1826973
:10D14000002A06D0097B1047898801E04FF6FF715D
:10D150008182704703B585B0012100220092ADF8AD
:10D1600010100192029203928DF802104189ADF8DD
:10D17000001006A9039104A90291808A6946A6DFDE
:10D1800007B000BD00B51A4889B000238068079039
:10D190004822184907A801F0A9F908B1FFF7E2FDF4
:10D1A0006A460121002001F08BF908B1FFF7DAFD92
:10D1B000114801F0E1F808B1FFF7D4FD684601F02D
:10D1C00075F908B1FFF7CEFD05A871DF08B1FFF7CB
:10D1D000C9FD05A9002070DF08B1FFF7C3FD0748AE
:10D1E00001F05AF9002801D0FFF7BCFD09B000BDDD
:10D1F00034EA0100DC220020E81F0020A5D0010055
:10D200002DE9F04707460024244802E0641C042C62
:10D2100041D250F82420BA42F8D1042C3BD21F4806
:10D22000DFF87C901F4E0C38A9F1140841B3012996
:10D230000FD002292FD104EB440030444578002D53
:10D2400029D0D8F81010002925D02846BDE8F0478D
:10D25000084704EB4401755C0E44717861B1D8F85D
:10D2600004100F4A01EB81014900133A8068FFF76F
:10D27000DFFD08B988F80170B17809F80410DEE71D
:10D280008068FFF715FE04EB4401314419F80400EF
:10D290008D78A842D3D0BDE8F08700004CEA0100A9
:10D2A000B02000204825002070B50023042810D2AB
:10D2B0000D4D00EB4004012A02D101290CD00022BF
:10D2C000094E00EB4000304461B1012906D002292B
:10D2D00006D00723184670BD0D30C2B22A55F9E7B3
:10D2E0004270F7E78270F5E74825002070B50E46DA
:10D2F0002149054600200A61C1E90165A9071BD53E
:10D300000024012211462046FFF7CEFF641C042CA6
:10D3100002D20028F5D00FE070B972080421174836
:10D32000FFF7D6FC40B9FFF7C1FC28B91348144AEF
:10D3300000211438FFF722FDE9070AD0114A4FF403
:10D34000F01111600F4B00221B1D1A600D4A1032A4
:10D35000116000280FD109480B4A00211C38FFF743
:10D360000DFD002807D1BDE8704004480121074A9F
:10D370001838FFF703BD70BD9C2000205CEA010057
:10D38000B5D60100080500505DDB01005DCC010051
:10D390002DE9F84F854EDFF810A24FF4E01CF1683C
:10D3A00007462CEA010C0091002071680AF1040480
:10D3B000251D7F4B4FF400324FF4802B01EB810E83
:10D3C0008146182F16D2DFE807F00C17173A4E6087
:10D3D0007083868F868FEAA0A0A0A0A0CAD1D8E1D2
:10D3E000EAEA009A4FF4F01191432160C5F80090E9
:10D3F00086F80090BDE8F88FC4F800C04846C5F82C
:10D400000090DAF800C08CF4F01C5FEA8C3C09D57F
:10D4100022602860022F02D14FF4E16008E04FF44F
:10D420007A6005E02A602060022F3CD04FF4C8707B
:10D430006422B0FBF2F04143377000225EE0C4F892
:10D4400000C04846C5F80090DAF800C08CF4F01C23
:10D450005FEA8C3C04D5226028604FF44870E7E70F
:10D460002A6020601FE0C4F800C04846C5F800905C
:10D47000DAF800C08CF4F01C5FEA8C3C02D5226024
:10D480002860CCE72A602060D0E7C4F800C0484696
:10D49000C5F80090DAF800C08CF4F01C5FEA8C3C10
:10D4A000DED522602860C820C2E7C4F800C0484624
:10D4B000C5F80090DAF800C08CF4F01C5FEA8C3CF0
:10D4C00002D52260286001E02A602060377014E0F5
:10D4D000C4F800C04DE0DAF800002BEA0002226038
:10D4E00000F48020286008E0DAF800002BEA000150
:10D4F000216000F480202860714600221868BDE891
:10D50000F84FFFF795BC21602EE098465868FFF76A
:10D51000CFFCD7F1110100D040B1F16801F4F01156
:10D520002160C5F80090C6F80C9063E74FF4002224
:10D53000F26001290CD9C82011FB00F16420B1FB75
:10D54000F0F1706800224143D8F80400FFF770FC46
:10D55000F16801F4F0112960C4F800904AE74FF433
:10D56000F0112160C5F80090377043E74FF4E011E7
:10D5700021604946C5F8009006E04FF4D0112160C3
:10D580004946C5F800905A462A60BCE74FF4C011DE
:10D5900021604946C5F800904FF4C022F4E74FF4EB
:10D5A000F01129604946AEE7040500509C20002098
:10D5B00040EA010030B58FB00024054607949DF87D
:10D5C0001C001C2120F00F00401C20F0F000103047
:10D5D0008DF81C009DF81D0020F00F00401C20F06D
:10D5E000F00010308DF81D009DF81E0020F00600A0
:10D5F000801C8DF81E006846FEF773FF9DF8000042
:10D60000019440F012008DF8000007A8CDE9044015
:10D6100003940694A87C8DF83A0041F22450ADF8AA
:10D6200038000D949DF83400142120F00F00401CA8
:10D6300020F0F00010308DF834009DF8350020F017
:10D64000FF008DF835009DF8360020F00600801CA4
:10D6500020F019008DF8360008A8FEF742FF0EA84A
:10D6600008900DA809900120ADF82800ADF82A40D7
:10D67000ADF82C000C94288805F10A0308AA694625
:10D68000A2DF0FB030BD000010B50E280AD1084847
:10D69000FFF760FD002809D0A0F54051023905D000
:10D6A000082803D0BDE81040FFF75CBB10BD0000A8
:10D6B000EC24002000780221FFF7A2BD05494FF0BD
:10D6C000FF32082841F8202002D3084480F848207F
:10D6D00070470000B0250020F0B54FF0FF3512B1C3
:10D6E0000023082601E008230C260C4C05E000BFAF
:10D6F00054F823707F1C04D05B1CB342F8D3284637
:10D70000F0BD26185DB286F8305044F82310002A88
:10D71000F5D1E11881F84800F1E70000B0250020BC
:10D720000249084490F9300070470000B0250020FD
:10D730002DE9F05F2648C168F1B3DFF898B00E68B4
:10D740008146DBF800400769C078E11B21F07F4586
:10D75000ED1CB0B9DFF880804FF48030C8F8440386
:10D76000C8F804031120FEF77DFF1120FEF785FFA6
:10D770004FF0010AC8F800A02F20FEF74BFE89F8F1
:10D7800003A0B54200D23546124BE8193C3320F0D5
:10D790007F401860DBF800105A46091B21F07F41DA
:10D7A000001B20F07F40C91C81420FD9106818600F
:10D7B0002F20FEF72FFE00E004E0BDE8F05F11200F
:10D7C000FEF766BFBDE8F05F00F090BDBDE8F09FDA
:10D7D000DC20002004150140001001402DE9F0413B
:10D7E00017880646B81D14460D46984202D90C20EB
:10D7F000BDE8F0813188072206290AD34FF4486C2E
:10D800004FF6FF73614501D9994202D1708806280D
:10D8100001D21046ECE7604501D99842F9D199420E
:10D8200003D0984201D08142F3D80520E8552088E2
:10D830001221401C80B2208029542088401C80B2D4
:10D8400020804119308801F025F82188084480B2F1
:10D8500020804119708801F01DF82188084420803B
:10D860000020C5E7FFF77EBAF8B5134800F0DEF8F0
:10D87000114D0026114C0C3D30B16169B9B1012048
:10D880008DF80000684611E0287820B1616971B117
:10D890008DF80060F6E7687858B1A1680848002262
:10D8A0000068FFF7C5FA10B1A16901B188472E7071
:10D8B000F8BD6168F2E70000C02000209425002038
:10D8C0007CEA01002DE9F04100260125144C22E0FC
:10D8D0006068226900EBC607387805FA00F111424A
:10D8E00017D08A43226100F01BFC02463878E368B7
:10D8F00005FA00F1194002FA00F3994209D179784A
:10D90000012901D0012100E0002151407A6802B1D3
:10D910009047761CF6B220788642D9D3BDE8F081D4
:10D92000C82000200E4910B54A788C780023A24206
:10D9300012D0521CD2B24A70022A00D14B70084A4F
:10D940004B78183252F8232002600869104420F006
:10D950007F400861012010BD0360002010BD000061
:10D96000DC2000202DE9F041124E07460125BD4084
:10D970003068FFF79DFA00280DD10F4C206928422E
:10D9800007D1384600F0CCFB0028E06805D02843DA
:10D9900004E0A8432061BDE8F081A843E06020696D
:10D9A00028432061A1683068BDE8F0410022FFF7FC
:10D9B0003FBA000090EA0100C8200020F8B51A4CD8
:10D9C000207800282ED0206928B10026E06820B1F8
:10D9D000002526B110E00126F8E70125F9E76846A1
:10D9E00052DF052803D020B1FFF7BCF904E001267F
:10D9F00002E021690098884785B96088ADF8000089
:10DA00006946A06861DF052803D020B1FFF7AAF9B5
:10DA100004E0012502E0D4E902018847002EDED0AF
:10DA2000002DD6D0F8BD0000FC200020054940881C
:10DA30000A88904204D34988884201D8012070475F
:10DA400000207047B820002030B51488E51C9D42A6
:10DA500001D90C2030BD02250D5513881C245B1CF8
:10DA60009BB21380CC5413885B1C9BB2138001289B
:10DA700007D0022807D0032807D0042807D00720A2
:10DA800030BD002004E0012002E0CD5401E003207D
:10DA9000C8541088401C1080002030BD30B58FB0B5
:10DAA00005461C216846FEF71CFD00249DF8000079
:10DAB000019440F00A008DF800000394049405944A
:10DAC0000694A87C8DF8360041F22550ADF834005C
:10DAD0000C949DF83000142120F00F00401C20F021
:10DAE000F00010308DF830009DF8310020F00F006C
:10DAF000401C20F0F00010308DF831009DF832000D
:10DB000020F00600801C20F019008DF8320007A8D4
:10DB1000FEF7E7FC0DA807900CA808900120ADF8CF
:10DB20002400ADF82640ADF828000B942888AB1CE3
:10DB300007AA6946A2DF0FB030BD000010B5064B42
:10DB400000204FF480121C1F11B11A60206010BD1C
:10DB50002260186010BD00000C0500500348017AD7
:10DB6000C90702D00078FFF713BC70479C20002043
:10DB70002DE9F047DFF8ACA0DAF80C009AF8004085
:10DB800080469AF80460DAF80890DAF810703AE003
:10DB900009EBC4052A7833E002EB42016B68521CA2
:10DBA00003EBC101AB78D2B2934200D100220B78D3
:10DBB000022B02D0032B23D11FE0D1F804C003466F
:10DBC000014603E0614503D00B46C969C1B1F9E7DD
:10DBD000B1B18B4205D1C06918B9134F0126BE609F
:10DBE0000027D1F800C0C969D96149B10B68634405
:10DBF0000B6005E00174C06900E000210028F9D144
:10DC000069789142C8D1641EE4B2C1D2CAE903075F
:10DC10008AF80460404502D00120BDE8F08700206A
:10DC2000FBE70000DC200020001001402DE9F04758
:10DC300005462F48002680460778D0F80C904BE028
:10DC4000D8F8080000EBC70440E002D02846ED6990
:10DC50001EE02078616800EB4002401CC0B201EB7E
:10DC6000C2012070A278904200D126700A784868DC
:10DC7000012A2DD1027C5ABB8A684260CA68826040
:10DC80000A69C2604969816198F8041001B146606F
:10DC90004268D8F81030DFF85CC0D11A21F07F411B
:10DCA000614502D28268114406E0991A826821F027
:10DCB0007F418A4202D9511A016000E00660466045
:10DCC000012186600174C66100F070FC002DBCD19A
:10DCD000207861788842BCD17F1EFFB2B0D2D8F8DC
:10DCE0000C10494502D00120BDE8F0870020FBE779
:10DCF000DC200020FFFF7F000020012188B00325E9
:10DD000001FA00F212F4E01F04D0820002F1A042F6
:10DD1000C2F80057401C2028F2D33F494FF4E010CE
:10DD200008600024081D046023463C4A0521204663
:10DD3000FFF736F808B1FFF715F840F266620121E7
:10DD40003748FEF7C5FF08B1FFF70CF8FFF71AFADE
:10DD50009DF8080033A120F00F00401C20F0F000D7
:10DD600010308DF808000A2202A87CDF08B1FEF707
:10DD7000F9FF00945020ADF80000A0200194ADF808
:10DD80000200ADF804404FF4C870ADF806006846D4
:10DD90007ADF08B1FEF7E6FF25480090694625487E
:10DDA000FFF790F908B1FEF7DDFFFEF703FF1C2136
:10DDB0006846FEF796FB4FF42020CDE90040801026
:10DDC00002901D4805901D488DF80C500690ADF846
:10DDD0000E408DF810406846FFF7C6F808B1FEF710
:10DDE000C1FF0023164A05211846FEF7D9FF08B1E6
:10DDF000FEF7B8FF002240F6CD410120FFF776FA8A
:10DE000008B1FEF7AFFFFEF709FF48DF0028FCD09E
:10DE1000FEF7A8FFF9E700000805005014210020D4
:10DE20008420002053746F7054686542757300003D
:10DE30003DDB0100EC240020A1E2010065D80100D7
:10DE40002423002070B5144682880E46054620889B
:10DE5000111D0144921C994201D8FE2A01D90C20BF
:10DE600070BD521C32542088FF21401C80B220809B
:10DE700031542088401C80B220808119288800F00D
:10DE800009FD2188084480B22080AA8842B1A9688F
:10DE900041B13044FEF70CFB2088A988084420805B
:10DEA000002070BD072070BDF8B50E4601781446FD
:10DEB0000546012901D1687830B12088821C9A4238
:10DEC0002DD8012902D006E00720F8BD6978014469
:10DED000891C994223D8181A801E87B2ADF80070A9
:10DEE0002188B01C084469467DDF0028EDD12878E0
:10DEF000022805D1BDF80010B94201D809210AE075
:10DF00000821012805D16878B84202D8ADF8000090
:10DF100001E0ADF80070BDF80000FE2801D90C202A
:10DF2000F8BD2288401CB0542088401C80B220805C
:10DF300031542088401C2080BDF800100844208007
:10DF40000020F8BD4907090E002806DA00F00F028C
:10DF500002F1E02282F8141D03E000F1E02282F8D1
:10DF6000001400F01F02012191404009800000F1DF
:10DF7000E020C0F88012C0F80011704710B50446C8
:10DF800000F09CF928B12046BDE81040002100F0C7
:10DF900016B9204600F09EF900280FD02046FFF762
:10DFA000BFFB074A02EB8001D1F8103523F00103D3
:10DFB000C1F8103501218140C2F8081310BD0000DE
:10DFC000006000402DE9F0478846814600F076F970
:10DFD0000124224E0028484618D0FFF7A1FB304408
:10DFE00090F848008009032802D0012806D007E0F5
:10DFF0001B48006804FA09F4204201D1022100E024
:10E0000003214846BDE8F04700F0D9B800F062F9B6
:10E01000002820D04846FFF783FB0546114F4FF4F8
:10E02000807007EB850100EB8500D1F8102580B2E8
:10E0300042F00102C1F8102500F0D0F8B8F1000F4D
:10E0400009D04846FFF76CFB56F82000002802D0A4
:10E05000AC40C7F80443BDE8F0870000B0250020BD
:10E0600010050050006000402DE9FC41DFF8A4805D
:10E07000044608EB0400002790F930001346C0174F
:10E080000E46401C01D0082740E0F2781946204691
:10E09000FFF722FB0546401C37D0B07848B1A000FE
:10E0A00000F1A040D0F8001721F00201C0F80017DD
:10E0B00007E000217378204600910A46019100F0A4
:10E0C0006DF8F078C0B11448317800EB8500D0F8D5
:10E0D0001025124B1A40C0F810254FF4F8524FF497
:10E0E000403302EA042203EA01410A43D0F8101542
:10E0F0000A43C0F8102509E008EB0500327810F853
:10E10000481F41EA8211017000E004273846BDE84B
:10E11000FC810000B025002000600040FFE0FCFF13
:10E1200003490968C14011F0010000D00120704787
:10E130001005005070B5124D95F8540008B1082034
:10E1400070BD0020411E2A18401CC0B282F8301059
:10E150002028F8D300242046FFF7B0FA641CE4B26C
:10E160000C2CF8D306210846FFF7ECFE05494FF0CA
:10E170000040C1F80403012085F85400002070BD60
:10E18000B025002000600040034890F854000028AB
:10E1900000D0012070470000B025002030B541EAD2
:10E1A0004201DDE9034541EA8301800041EA04219F
:10E1B00000F1A04041EA0541C0F8001730BD8000E1
:10E1C00000F5E06000F1A040026822F440320260F5
:10E1D000026842EA0141016070470000034908B546
:10E1E0000844002101600068009008BD0060004004
:10E1F00002494058012800D00020704700600040CC
:10E200004058002800D001207047D0F8040308408F
:10E2100000D0012070474058002800D001207047EE
:10E2200070B51D49068800220B1F1C4C4FF40025B9
:10E23000102E0CD0112E15D02046132E00881FD082
:10E24000522E27D100231A461946A9DF1CE00D6083
:10E250001A604FF480251D600A6080882080FEF7D8
:10E2600025FD11E01D600A604FF6FF702080FEF76B
:10E2700005FD08B1FEF776FDBDE87040FEF7CEBCA7
:10E2800000231A4685217FDF002803D0BDE87040B7
:10E29000FEF768BD70BD00000C0500508020002016
:10E2A0000078002807D104483B21008876DF002849
:10E2B00001D0FEF757BD7047802000200449084474
:10E2C00090F93000082801DB0120704700207047DA
:10E2D000B02500200449084490F93000082801D2F4
:10E2E0000120704700207047B025002070B501263E
:10E2F00070044FF0E0210025C1F88001084C401067
:10E30000C4F84803C4F8080366602F20FEF782F8BB
:10E31000A660044C2F202561FEF77CF8E57070BDE7
:10E3200000100140DC20002009480A490022C37D7A
:10E33000C1F8082143B1D1F81815437EC268D15401
:10E34000417E491C41767047D1F81805704700009E
:10E3500008260020002000401FB501228DF808008B
:10E3600004488DF800200191D0E9001268469047DA
:10E370001FBD00000826002008B5024900200091BA
:10E3800008BD00008020002010B50121202803DAFC
:10E390001D4A8140114004E0402803DAA0F1200228
:10E3A000914041B1002809DA00F00F0101F1E021AC
:10E3B00091F8141D06E042F2010010BD00F1E021C9
:10E3C00091F800144909082914D299B1012911D0F2
:10E3D00004290FD005290DD00C4A946800F01F03C2
:10E3E00001219940400944B152F820300B4342F8D2
:10E3F000203007E042F2020010BD800000F1E02072
:10E40000C0F80011002010BDFC06FFBC482600200B
:10E410002DE9F0410746806A14468846C8B30025B6
:10E4200031E000BFB96A05EB450001EB8006B0881A
:10E43000801CFE2802D90C20BDE8F0812288401CF7
:10E4400008F8020020881622401C80B2208008F8BC
:10E4500000202088401C80B2208000EB080130881A
:10E4600000F018FA2188084480B22080B28842B1B6
:10E47000B16871B14044FEF71BF82088B1880844A8
:10E4800020806D1CEDB297F82C00A842CAD800205D
:10E49000D2E7FFE70720CFE718B10349C8600020A3
:10E4A00070470E2070470000FC2000201CB5034977
:10E4B00001910091694660DF1CBD000080200020B2
:10E4C00070B50E460546144614211046FEF709F8AD
:10E4D000012020800021216121732672657205B11F
:10E4E000A072002070BDFEF72BBC000030B409B153
:10E4F0008C0702D0072030BC7047074C0125A16073
:10E5000062800649636010DF0028F4D1257030BCBA
:10E510001620FFF739BF0000FC200020E7E40100CF
:10E520002DE9F84F204C00256846D4E903B6FFF7E3
:10E53000F9F98046FFF71CFB0746A946B8F1000F22
:10E5400025D00023009ACC46E06819E00768014610
:10E55000974202D9BA1A026014E0C1F800C0D1F89B
:10E560000C80D21BC8693B448A46B8F1000F07D023
:10E57000F71827F07F47C1E90178CAF81C500D460B
:10E580000028E3D1E0602846FFF750FB04E028466E
:10E59000FFF74CFB00B917B15846FFF7C9F884F8EC
:10E5A0000490BDE8F88F0000DC2000200D4B10B572
:10E5B000D96831B102680C68A24204D8A21A0A6074
:10E5C000C161D86010BD0B4603E00B46C969121B40
:10E5D00021B10C689442F8D3A41A0C600260C161A6
:10E5E000D86110BDDC2000202DE9F0411D4DEC6804
:10E5F000002C35D01C48002700682969B846401A0D
:10E6000020F07F462068B04215D82246361A0744CB
:10E61000E469107C68B182F810806B6933B1D2E98B
:10E620000501984728B1FEF79DFB02E0D2E90510ED
:10E630008847002CE6D16978A878814206D1401C31
:10E64000C0B2A870022801D185F802800548A978D7
:10E65000183040F82170BDE8F0411420FEF718B8DA
:10E66000BDE8F081DC20002004150140064A0020AE
:10E67000C2F81C010548838A8168C95C838A5B1CD7
:10E680008382C2F81C157047002000400826002035
:10E690001FB500218DF8080005488DF8001082682C
:10E6A00001928175D0E90012684690471FBD0000B5
:10E6B000082600202DE9FF413E4D4FF40071284609
:10E6C000FFF7A3FD01273C4C4FF40178002600B36F
:10E6D0004FF492712846FFF793FDD0B1C5F824613D
:10E6E000C5F80883A07E00B96F6002208DF8000095
:10E6F000D5F88004C5F880040390E07D8DF808000B
:10E70000E0680190E6752676D4E9001268469047E5
:10E7100024E004212846FFF778FDF8B14FF4847116
:10E720002846FFF76DFDC8B1FFF7FEFDE07D617E75
:10E73000884213D1227E3AB1607EE168E275226997
:10E74000E2602676667607E0A07E00B96F60C5F8C5
:10E750000883E675607EE168FFF7FEFD4FF48E7179
:10E760002846FFF74DFD58B1A18AA07D814202D213
:10E77000FFF77CFF04E0C5F81C6108B1FFF788FFD4
:10E780004FF4A2712846FFF73BFD00280FD0C5F8D3
:10E790004461A07E00B12F60E07D002807D0E675BF
:10E7A000607EE16804B0BDE8F041FFF7D5BDBDE88B
:10E7B000FF81000000200040082600207FB5334C78
:10E7C0004FF492712046FFF726FD314D0026B0B17F
:10E7D000C4F8246102208DF80000D4F88004C4F845
:10E7E00080040390D4F83C058DF80800E868019097
:10E7F000EE752E76D5E90012684690471FE04FF47B
:10E8000088712046FFF707FDC8B1C4F81061D4F83D
:10E810003C05E97DC0B2814211D12A7E5AB1E96836
:10E82000D4F8003223F02003C4F80032EA752A69D4
:10E83000EA602E7601E0EE75E968FFF78DFD4FF492
:10E84000A2712046FFF7E7FC50B1C4F84461E87DAF
:10E8500030B1EE75D4F83C05E968C0B2FFF77CFD35
:10E860004FF490712046FFF7D6FC00280CD0C4F876
:10E870002061A87D002807D0D4F84C0504B0C0B2B0
:10E88000BDE87040FFF704BF7FBD000000200040DE
:10E89000082600200870000A487002207047000017
:10E8A00038B515494888A0F57F42FF3A23D04A7809
:10E8B000124C521CD2B24A70237B93420AD3091DD8
:10E8C00075DF002817D0A169002914D001B0BDE878
:10E8D0003040084700254D70217C29B13B2176DF6F
:10E8E00010B1A16901B188476169002903D08DF891
:10E8F00000506846884738BDB42000209425002089
:10E90000EFF30580C005C00D13D0103840B20028C9
:10E9100006DA00F00F0000F1E02090F8140D03E09B
:10E9200000F1E02090F800044009022803D00628F6
:10E9300003D00220704700207047012070474278C2
:10E940008378521CD2B2934200D1002203789342C2
:10E9500001D1002070470A704168407800EB400008
:10E9600001EBC00070472DE9FC411646DDE9085473
:10E97000CDE900541F468046022200F00CF8002822
:10E9800007D1CDE900543B4610223146404600F005
:10E9900002F8BDE8FC812DE9FC5F0026DDE90C4BA7
:10E9A000994692468E4680462788354630E0D8F80C
:10E9B0000400002200EB850069460068019001A870
:10E9C00065DF002830D19DF8000050451FD10EB101
:10E9D000002100E00221228808441118594522D85C
:10E9E00046B9521C90B2208009F800E02088401CF3
:10E9F00020800126218801A801EB0902694665DF14
:10EA0000002811D120889DF80010084420806D1C3A
:10EA1000B8F80000A842CADC56B12088C01B401ECE
:10EA200080B2FF2802D90C20BDE8FC9F09F807003E
:10EA30000020F9E723150000AAFE010001000007ED
:10EA40000825002028250020542500200D00000066
:10EA50000E0000000F000000100000000D00030079
:10EA600001D201000E00030001D201000F000300DB
:10EA700001D201001000030001D201007425002022
:10EA800023D1BCEA5F782315DEEF121200000000EC
:10EA90002826002003000000B8EA010080200020A2
:10EAA0009400000094C901004CEB010014210020E7
:10EAB00044250000A4C90100FFFF00000E00030070
:10EAC00089D60100EE00676F6F2E676C2F423953B5
:10EAD0004451590000000000000000000000000048
:10EAE0000000000000000000000000000000000026
:10EAF0000000000000000000000000000000000016
:10EB00000000000000000000000000000000000005
:10EB100000000000000000000000000000000000F5
:10EB200000000000000000000000000000000000E5
:10EB300000000000000000000000000000000000D5
:0CEB400000000000000000000090D00366
:040000050001C40131
:00000001FF
