:020000040000FA
:1000000088520020050500000D0500000F050000C6
:100010001105000013050000150500000000000098
:1000200000000000000000000000000017050000B4
:1000300019050000000000001B0500001D05000060
:100040001F0500001F050000C50C00001F05000073
:100050001F0500001F050000A90500001F05000086
:100060001F0500001F0500001F0500001F05000000
:100070001F0500001F0500001F0500001F050000F0
:100080001F050000550700001F0500001F050000A8
:100090002F0A00001F050000350A00001F050000A0
:1000A0001F0500001F0500001F0500001F050000C0
:1000B0001F0500001F0500000000000000000000F8
:1000C0001F0500001F0500001F0500001F050000A0
:1000D0001F0500001F0500001F05000000000000B4
:1000E0000000000000000000000000000000000010
:1000F0000000000000000000000000000000000000
:1001000000000000000000000000000000000000EF
:1001100000000000000000000000000000000000DF
:10040000DFF80CD000F0BEF8004800476D5C00003B
:1004100088520020401E00BF00BF00BF00BF00BFC9
:1004200000BF00BF00BF00BF00BF00BF00BF00BFD4
:1004300000BF00BF00BF00BF00BF00BF00BF00BFC4
:1004400000BF00BF00BF00BF00BF00BF00BF00BFB4
:1004500000BF00BF00BF00BF00BF00BF00BF00BFA4
:1004600000BF00BF00BF00BF00BF00BF00BF00BF94
:1004700000BF00BF00BF00BF00BF00BF00BF00BF84
:1004800000BF00BF00BFC5D170470000401E00BFC5
:1004900000BF00BF00BF00BF00BF00BF00BF00BF64
:1004A00000BF00BF00BF00BF00BF00BF00BF00BF54
:1004B00000BF00BF00BF00BF00BF00BF00BF00BF44
:1004C00000BF00BF00BF00BF00BF00BF00BF00BF34
:1004D00000BF00BF00BF00BF00BF00BF00BF00BF24
:1004E00000BF00BF00BF00BF00BF00BF00BF00BF14
:1004F00000BF00BF00BF00BF00BF00BF00BFC5D12D
:10050000704700000648804706480047FEE7FEE7C0
:10051000FEE7FEE7FEE7FEE7FEE7FEE7FEE7FEE7B3
:10052000590A00000104000040EA01039B0703D0C0
:1005300009E008C9121F08C0042AFAD203E011F822
:10054000013B00F8013B521EF9D27047D2B201E0E4
:1005500000F8012B491EFBD270470022F6E710B5C8
:1005600013460A4604461946FFF7F0FF204610BD21
:10057000034611F8012B00F8012B002AF9D1184687
:1005800070470000064C074D06E0E06840F00103AC
:1005900094E8070098471034AC42F6D3FFF734FFD5
:1005A000DC7F0000FC7F00002DE9FC5F0025DFF808
:1005B0003491A8464FF4807601242F46304605F04A
:1005C000D9FF38B1D9F80403204203D0304605F0F2
:1005D000C7FF2543361D64007F1CB6B2082FEDD33C
:1005E0004FF4BE74204605F0C5FF38B1204605F033
:1005F000B7FF3D4845F00045D0F800803B4E15F070
:10060000FF0F14D0012700242F420CD009EB8401E6
:10061000D1F81005D1F81015C0F3042056F82420A5
:10062000C1F3014190477F00641C082CECD3002DDE
:1006300056DA00200190401E4CE0701910F8501F4F
:1006400090F9000021F0C004401C38D0012000FACD
:1006500004FA1AEA090F32D04FEA911B204604F03F
:100660006FFE56F82000009010B9BBF1030F26D1A1
:100670005146BBF1030F02D1019808430190A0003D
:1006800000F1A040D0F800071AEA080FC0F30140BB
:1006900002D0022802D012E0032810D1BBF1030FD0
:1006A00007D102281AD00221204605F04AFF7F1CFC
:1006B000FFB2009818B1009A5946204690476D1C29
:1006C000042DBAD3002F0BD007480068404507D04F
:1006D00080460198002781463D46AEE70321E3E7C7
:1006E000BDE8FC9F0060004010050050D0230020B2
:1006F00000F01F02012191404009800000F1E0203C
:10070000C0F88012704700F01F020121914040099B
:10071000800000F1E020C0F80011704700F01F02D7
:10072000012191404009800000F1E020C0F8001252
:1007300070474907090E002806DA00F00F0000F1A3
:10074000E02080F8141D704700F1E02080F80014CC
:100750007047000007480021C0F84011C0F844115C
:10076000C0F84811C0F84C11C0F80011C0F80411CD
:1007700007F0ACB8001001402DE9F047114F0446D6
:10078000DDF8209038781D461646884608B900F0F6
:10079000A3FA7869A04211D90A4904EB440001EB9D
:1007A000C00134B1C1F84880C1E9136500208865F3
:1007B00048650020C1F85C90BDE8F0874FF0FF303D
:1007C000FAE70000942C00202DE9F047114F044671
:1007D000DDF8209038781D461646884608B900F0A6
:1007E0007BFA3869A04211D90A4904EB440001EBB5
:1007F000C00134B1C1F81880C1E9076500208862E2
:1008000048620020C1F82C90BDE8F0874FF0FF301F
:10081000FAE70000942C002070B5074B06461446FA
:1008200018780D4608B900F057FA22462946304696
:10083000BDE8704000F002B8942C002070B50E4660
:10084000144900EB400001EBC0051446E86A183576
:1008500020B101280FD0022805D113E0284600F06E
:100860006FFAA04201D2002411E022463146284608
:1008700000F08CFB0BE0284600F062FAA042F4D2B4
:100880000446F2E73146284600F053FB0446204672
:1008900070BD0000942C00202DE9F04198B0064670
:1008A00007A8029040200025CDE90305CDE90556B3
:1008B00090460C4614F8011B002973D0252908D056
:1008C00002A800F017FB05980028F3DA18B0BDE87D
:1008D000F08100200122217823291ED02B2919D054
:1008E0002D2902D0302908D102E040F0010001E0BA
:1008F00040F00200641C002AEDD100222178A1F111
:1009000030030A2B0CD202EB820201EB4202303A96
:10091000641CF3E740F00400ECE740F00800E9E76E
:100920000023CFB22E2F0BD114F8011FA1F13007F5
:100930000A2F05D203EB830301EB4303303BF3E7BC
:100940006C290DD068290BD0702954D00BDC2529D7
:1009500016D0582931D063290CD0642913D114E062
:1009600014F8011BECE7732934D075291BD07829C2
:1009700009D122E0D8F80000011DC8F80010017864
:1009800002A800F0B7FA641C9DE7D8F800100F1D0C
:10099000C8F800700968CDE900200A2202A800F01A
:1009A000DBF9F0E733E0D8F800100F1DC8F800704D
:1009B0000968CDE900200A2208E0D8F800100F1DD0
:1009C000C8F800700968CDE90020102202A800F0E4
:1009D00027FAD8E7D8F80000011DC8F8001007680A
:1009E00017F8011B0029CED002A800F083FA059861
:1009F0000028F5DAC7E7D8F80000011DC8F8001094
:100A000001680820CDE9000503461022DEE70598BD
:100A100000287FF75BAF049820B1024607A9304653
:100A2000FFF7FAFEDDE90410084405904EE706F0F2
:100A3000E9BE0000074810B5406830B18047002883
:100A400007D0BDE8104000F0EDBCBDE8104004F058
:100A5000F9BE10BD5021002070B58D480023021D45
:100A60000178101D0124062907D115782D0704D11E
:100A70000578C5F30315032D02D0062904D00FE035
:100A8000854E844D75670EE015782D0708D10578E1
:100A9000C5F30315032D06D0042D04D0052D02D077
:100AA000062909D010E04FF08055D5F844527B4E0E
:100AB000C5F34235356002E015782D0704D105787D
:100AC000C5F30315032D02D0062906D011E0744D9D
:100AD0002E6826F080762E600EE015782D0708D15E
:100AE0000578C5F30315032D06D0042D04D0052D7C
:100AF00002D006290AD011E04FF08045C5F80C312C
:100B0000C5F81031654D2D1F2B6002E015782D07BB
:100B100004D10578C5F30315032D02D0062905D0AD
:100B20000CE05E4A0321643211600AE015782D075B
:100B300004D10578C5F30315032D02D006290DD085
:100B40006AE0584A05211160564978310C605549D0
:100B500008310B603F21121D116002E01178090776
:100B60005AD10078C0F30310052855D14E480068CB
:100B70004E4908604C48001D0068091D08604A483D
:100B800008300068091D086047480C300068091DDE
:100B90000860454810300068091D0860424814305C
:100BA0000068091D08604048183000683F4920313E
:100BB00008603D481C300068091D08603A48203034
:100BC0000068091D0860384824300068091D086065
:100BD000354828300068091D086033482C3000680B
:100BE000091D0860304830300068304940310860E5
:100BF0002D4834300068091D08602B4838300068E3
:100C0000091D086028483C300068091D0860264816
:100C100040300068091D086021487438016841F4BB
:100C200070010160BFF34F8FBFF36F8F4FF0102142
:100C3000D1F80002002803DBD1F80402002822DAF0
:100C40001B4A14601B480468002CFCD01524C1F812
:100C500000420568002DFCD0C1F80442016800295B
:100C6000FCD0136001680029FCD0BFF34F8F0C4803
:100C7000F0380168104A01F4E06111430160BFF3EC
:100C80004F8F00BFFDE70E490C48086070BD0000A3
:100C9000E00F00F00DF0ADBA00C007403C05004089
:100CA000FCED00E0105600400404001020C5004098
:100CB00004E5014000E401400400FA050090D0037F
:100CC000642100200348007F08B106F043BF06F00E
:100CD000BDBE00002824002010B5124C0220206167
:100CE000606111A0A061A4F58260E0614FF48060B2
:100CF00020620020A06260620BA1A164E062A4F106
:100D00001001E16410212165A0656065E06509A11D
:100D1000E01DFFF72DFC08A12046FFF729FC20204D
:100D2000A07110BD942C00205465726D696E616CC9
:100D300000000000525454005345474745520000FC
:100D40000269C1688A4203D88068401A104400E0F2
:100D5000501A401E704700002DE9FC5F0E008146CE
:100D6000DDE90C47C6F1000098469346824600D460
:100D70000846012503E000BF90FBFBF06D1C5845C1
:100D8000FADAA84500D9454624B1002E01DB7807E0
:100D900000D5641EB80702D5B8F1000F0FD0F807D0
:100DA0000DD164B1A5420AD220214846641E00F04C
:100DB000A1F8D9F80C000028F3DABDE8FC9FD9F8B7
:100DC0000C000028F9DB002E02DA56462D2102E045
:100DD000780707D52B21484600F08CF8D9F80C008D
:100DE0000028EADB07F0030002280FD1B8F1000F5A
:100DF0000CD15CB1A54209D230214846641E00F0F6
:100E000079F8D9F80C000028F3DAD6E7CDE90047E5
:100E100043465A463146484600F002F8CDE7000006
:100E20002DE9F84F8246DDE90A4B012698469146A6
:100E30000D460846374602E0B0FBF9F07F1C4845F6
:100E4000FAD2B84500D947465FEACB7017D1B4B1A2
:100E50005FEA8B7002D5B8F1000F02D0202000901D
:100E60000BE03020FBE75046641E009900F042F88A
:100E7000DAF80C00002838DB0CB1A742F3D3DAF81B
:100E80000C00002831DB00BFB8F1010F02D9A8F136
:100E9000010803E0B5FBF6F0484502D306FB09F66E
:100EA000F2E7DFF84C8000BFB5FBF6F000FB16550B
:100EB00018F80010504600F01DF8DAF80C00002871
:100EC00003DBB6FBF9F6002EEED15FEACB700CD057
:100ED000002C0AD0A74208D220215046641E00F000
:100EE00009F8DAF80C000028F2DABDE8F88F000003
:100EF000A87F000010B50446D4E90130421C93429B
:100F000005D323681954A260E068401CE060D4E96E
:100F10000102824209D121682069FFF77DFCA168A6
:100F2000884203D04FF0FF30E06010BD0020A06089
:100F300010BD2DE9F047C4681746894606464FF0B4
:100F400000083069A04201D9051B02E0B168201AEF
:100F50000D1AB0686D1E001BA84200D80546BD42A0
:100F600000D33D4670682A4620444946FFF7DCFA24
:100F7000B0687F1B2C44A844A944A04200D100249F
:100F8000F460002FDDD14046BDE8F0872DE9F04147
:100F9000C6680446174688468068851B6068BD425F
:100FA00006D93044FFF7C0FAF019E060BDE8F081DF
:100FB0002A463044FFF7B8FA7E1B08EB050132469B
:100FC0006068FFF7B1FAE660F0E702E008C8121FB8
:100FD00008C1002AFAD170477047002001E001C122
:100FE000121F002AFBD170472DE9FC5F00251688EF
:100FF00007461580406B14468846AB464FF00C09F7
:1010000011234FF0020A98B101784046032E47D3CE
:1010100080F800A02288521C92B222808354228839
:10102000521C92B2228008F802102088401C2080B6
:101030003A6BDAB12088414600F11205B5422FD84B
:101040000B5420881023401C80B220800B54208831
:10105000401C20800F202388155C401ECD5423881F
:1010600040B25B1C23800028F5DA5D4697F82E001D
:1010700030B133462246414604F02CFC050010D125
:1010800097F82D0030B132462146404600F0A2FCD0
:10109000050006D1B87820B32088001DB04202D9DF
:1010A0004846BDE8FC9F684605F0C2FC0028F8D120
:1010B0002288032008F8020020881922401C80B2F0
:1010C000208008F800202088401C80B2208000EB9F
:1010D0000801BDF8000006F0B5FD0146208808446F
:1010E0002080F878B8B1228897F90310D31C4046C5
:1010F000B342D5D800F802A022880123521C92B234
:10110000228083542288521C92B2228008F8021056
:101110002088401C20807868B8B1218890F9002090
:10112000CB1C4046B342BBD800F801A021880A235B
:10113000491C89B2218043542188491C89B22180ED
:1011400008F801202088401C2080388950B1CDE962
:10115000004643460622022107F1080006F074FE0D
:1011600005009ED1388A50B1CDE90046434607229A
:10117000032107F1100006F067FE050091D1388BBE
:1011800050B1CDE9004643461522142107F118005D
:1011900006F05AFE050084D1386A30B13346224643
:1011A000414604F076F90500DBD1786A30B1334668
:1011B0002246414604F010FE0500D2D197F82C00DB
:1011C00038B1334622464146384606F00DFA05004E
:1011D000C7D1387838B1334622464146384604F004
:1011E0002DFE0500BDD128465BE7000010B586B096
:1011F00018216846FFF7B1F900244020ADF810002F
:101200008DF8004001948DF80840ADF81240684612
:1012100005F0F2FB08B100F005F904494FF4003085
:101220000860081F046006B010BD00000C050050E7
:1012300070B5044604200C4B002200BF02EBC2052F
:1012400003EB8505AD781DB1521C022AF6D370BDA3
:1012500002EBC20003EB80060125B57023F82040A5
:1012600000200A6070BD00000C2D0020034610B560
:1012700005200A4A002100BF01EBC10432F82440D6
:101280009C4206D101EBC10102EB81010020887074
:1012900010BD491C0229EFD310BD00000C2D002009
:1012A00070B5044605200A4B002200BF02EBC205C0
:1012B00033F82560A64204D103EB8505AD78012DF6
:1012C00003D0521C022AF1D370BD00200A6070BD09
:1012D0000C2D0020034610B505200A4A002100BF4E
:1012E00001EB410432F824409C4206D101EB41015C
:1012F00002EB81010020887010BD491C0829EFD342
:1013000010BD0000542D002070B5044605200A4B86
:10131000002200BF02EB420533F82560A64204D14B
:1013200003EB8505AD78012D03D0521C082AF1D3BB
:1013300070BD00200A6070BD542D002070B50024DF
:10134000084D05E0686810F8340004F0EFFD641CF7
:1013500028788442F6D304480068BDE8704000F065
:1013600073B90000A8200020A07F000070B5002401
:10137000064D06E06868012110F8340004F0FAFD1B
:10138000641C28788442F5D3002070BDA82000207A
:10139000F8B515460C460646052A01D20720F8BDC9
:1013A00004F0CAFE18B904F09DFE0028F7D11049D8
:1013B00000204E600C70C1E902500E4D08610DE036
:1013C00006EBC4006968009181788DF801100078FF
:1013D000094A694604F020FE0028E0D1641EE4B208
:1013E000EED2BDE8F840054A0021024800F092B86C
:1013F000A8200020A07F0000D557000095550000D0
:10140000BFF34F8F05480168054A01F4E0611143BD
:101410000160BFF34F8F00BFFDE700000CED00E05F
:101420000400FA050EB500210091CDE901106A46CD
:1014300044F20100FFF7E4FF0EBD42680021117085
:1014400042685170426891704068C17008467047A8
:1014500008B56A4600F004F808BD028900F027B814
:101460002DE9F047D0E900740025068990F80A803C
:1014700091468A46284600F063F9A078A8B1207802
:10148000361D00FB06764146204604F077F830888A
:10149000311D82B2A9F800205046FFF745F8002020
:1014A00000F050F92846BDE8F0870425F7E72DE95C
:1014B000F047D0E90084857A078991468A46002062
:1014C00000F03EF9A078A84209D1E07828B1294679
:1014D000204604F053F8042602E0042613E0002618
:1014E00061783F1D01FB0780A278491C521CC9B2DC
:1014F000A270A94200D10021617040F8049B4A46C5
:101500005146FFF711F8002000F01CF93046BDE805
:10151000F0870000074B9B6823B12AB120B1006817
:10152000037C1BB10820704707207047417442615B
:1015300000207047BC2000202DE9F04780469946E6
:1015400014460F4690074FF0000634D11C4D8CB363
:1015500005F064F90320C5F81490287004F1180010
:10156000002107EB4703AC6004EBC102491C167075
:1015700056709770506000EBC3000329F4DBEE60F7
:101580006E70AE701420FFF7B3F806211420FFF739
:10159000D0F81420FFF7B7F80A49C1F800800621F7
:1015A0001120FFF7C6F80748001F006828610020D7
:1015B000BDE8F08701E00720FAE7AE60FBE7000036
:1015C000BC200020081501402DE9F843DFF8709099
:1015D0000D461746D9F80810044651B34CB3052DF3
:1015E00002D20720BDE8F883606910B3607C01284F
:1015F00021D0002606F0E6FBD9F80810804601EB62
:10160000C800694606F0FDFBB8B1012100F8041BD3
:101610000C4910C0096880E8E200D9F8081001EB15
:10162000C8009DF8001041701420FFF777F80020E3
:10163000D8E70820D6E72E46DCE70420D2E70000F2
:10164000BC20002004150140F8B5124E0446B168D4
:10165000E1B1DCB16069C8B10027277406F0B2FBC4
:101660000546B068694600EBC50006F0CAFB78B1D4
:10167000022101704460B0689DF8001000EBC500C5
:1016800041701420FFF74AF83846F8BD0820F8BD2D
:101690000420F8BDBC20002070B588B01546044673
:1016A0001E4620221A496846FEF73EFFA0680690B3
:1016B000207900B101208DF814008DF81C6060794C
:1016C00000B10E208DF81500E0780290A07803900C
:1016D00020780190607800900E480021456081706C
:1016E0002079022809D00C49684604F02FFD002813
:1016F00004D19DF81D0018B104E0062008B070BDAB
:1017000004F0B4FD03480121401C04F069FDF5E735
:10171000607F0000A0200020F5790000074910B587
:1017200008700121054804F047FE112803D0002865
:1017300000D0032010BD042010BD0000A020002018
:1017400000F002B800F008B872B602480168491CFF
:1017500001607047DC20002003490868401E0860D3
:1017600000D162B670470000DC2000202DE9F04176
:1017700004460078184F012606FA00F03860206809
:1017800004F0D5FE0021606804F0C8FE1348144D33
:10179000007FA069C5F82405607D217D0843C5F858
:1017A0006C05D4E90001C5F80C05C5F81415207DB9
:1017B00001280FD10021A06804F0B0FE207B8640F4
:1017C0003E60E06804F0B3FED4E90201C5F80815F4
:1017D000C5F81005BDE8F081080500502824002058
:1017E00000200040F0B50C4693B01F210726ADF84D
:1017F0000010ADF80410002750B1C17849070DD58D
:101800006A4602A9FFF7F0FB002808D102AD02E00A
:101810000025ADF800706CB1E07810B1304613B01F
:10182000F0BD01AA0AA92046FFF7DEFB0028F6D189
:101830000AAA02E00022ADF80470BDF80400C3B2A9
:10184000BDF80000C1B2284605F0AEF8E7E7000099
:10185000F8B51D4617460E000FD075B168B10446A5
:1018600006F013FA002807D1054800902B463A46A7
:101870003146606803F0F0FDF8BD0E20F8BD0000B1
:10188000C51800002DE9F0411D4617460E0016D080
:10189000ADB1A0B1044606F040FA002810D12B46A5
:1018A0003A463146601C06F038FA002808D12B462B
:1018B0003A463146A01CBDE8F04106F02EBA0E2093
:1018C000BDE8F0812DE9F0411D4617460E000ED00F
:1018D0006DB160B10446FFF7D5FF002808D12B4653
:1018E0003A463146E01CBDE8F041FFF7CBBF0E2081
:1018F000BDE8F08170B5054601461C221048FEF790
:1019000013FE104C00262670286838B1016861600B
:101910004068A060201D05F04DF903E00948001D56
:1019200005F028F900280AD14FF6FF706080667034
:10193000BDE87040044A00210448FFF7EBBD70BDCC
:10194000B42300208C200020617D00004C7F00002B
:1019500070B51E4C068800251B49E289102E15D053
:101960001B4B112E1CD0122E29D0502E17D130F81F
:10197000061F914213D14189022910D1007B10F03A
:10198000010F11D0BDE8704003F0CABD83884B80C1
:101990008369CB60C06908614D70002AF2D070BDC8
:1019A0004FF6FF7048804D701868FFF74DFE002815
:1019B000F5D0A1690029F2D0BDE8704008478268DF
:1019C000CA60C0680861DDE78C200020B4230020D5
:1019D0004C7F00007CB5054608880C4609309042D3
:1019E00001D90C207CBD684604F0A0FF0028F9D185
:1019F00021880820685420881B21401C80B2208048
:101A000029542088401C80B220802844DDF8011031
:101A10000160BDF8051081802088801D80B2208083
:101A20009DF8001001B1012129542088401C20801C
:101A300000207CBD2DE9F0411D4617460E0018D050
:101A4000BDB1B0B10446FFF703FF002812D12B4609
:101A50003A46314604F1080000F0F5FC002809D1AF
:101A60002B463A46314604F10C00BDE8F04102F045
:101A700043BD0E20BDE8F0811CB514460022019242
:101A800029B124B12268022A03D209201CBD0E20EC
:101A90001CBD60220A7001220192054A009201AB2E
:101AA000226803F0D9FC0028F2D1019921601CBD05
:101AB000351A00001346602205F08ABA2DE9F0417C
:101AC0001C46164660B15CB1022906D330F8025BB1
:101AD000891E4EB12268042A04D20920BDE8F08193
:101AE0000E20FBE7121F22600027202D73D012DC8E
:101AF00031D2DFE805F03034393E3030303030302C
:101B00003030303030305C614D76714386488B7BAD
:101B100057666BE98052392D72D00ADCA5F130028C
:101B2000092A18D2DFE802F08EAA7C89AF8193A53A
:101B3000A000532D6FD008DC3A2D6DD0502D6CD005
:101B4000512D6BD0522D06D1B2E0542D67D0552DBA
:101B500070D0702D6FD00520002E6DD1C1E02346CE
:101B6000324600F0D7F8B7E02346324600F060F97D
:101B7000B2E02346324600F0FFF8ADE0234632469D
:101B800001F018F8A8E02346324600F05AFDA3E021
:101B90002346324600F01EFE9EE02346324600F009
:101BA00060FE99E02346324600F0A2FE94E0234610
:101BB000324600F0DDFE8FE02346324600F040FF63
:101BC0008AE02346324601F08EF985E0234632460C
:101BD00001F02FF880E07CE02346324601F097F8D0
:101BE0007AE02346324601F0EDF875E023463246AE
:101BF00000F05AFD70E02346324601F01BF96BE01D
:101C00002AE02346324600F04DFF65E02346324687
:101C100000F07AFF60E047E022E039E04CE03FE08E
:101C20002346324601F01AFE56E02346324601F0C2
:101C3000D7FE51E030E043E050E02346324601F069
:101C4000E2FF49E02346324602F0B6F844E023467C
:101C5000324602F032F93FE0324602F04DF83BE006
:101C6000324602F0EFF937E02346324602F01CFA22
:101C700032E02346324601F06BFF2DE02346324628
:101C800002F07AF928E02346324601F051FD23E0C4
:101C9000324602F0DBFD1FE0324602F0A6FD1BE0FB
:101CA000324602F04CFD17E0324602F03EFC13E0F3
:101CB000324602F069FD0FE0324602F09FFC0BE075
:101CC000324602F0D4FF07E02346324600F05BFCC8
:101CD00002E0324600F0DFFF1EB130B13780002154
:101CE00071802168091D2160F8E63580218889B25C
:101CF000F6E7000010B5044604F054FC2046FFF758
:101D000027FE2146BDE81040014803F06FB80000EF
:101D1000782300202DE9F8435FEA00084FF0000027
:101D200014461D460F4600900AD04DB1032F1ED316
:101D300003263CB12868032806D20C20BDE8F883AE
:101D40000E20FBE71E6015E001202080032060804C
:101D5000231D6A46404605F069FF04F108036A4600
:101D60003946404605F0C1FF0098B84201D009202D
:101D7000E4E72E600020E1E72DE9FC4714465FEA26
:101D800000081E468A463AD0BEB34FF0000910271D
:101D9000CDF8009094B3032020801020608004F1DF
:101DA0000805231D6A46404605F060FF002822D141
:101DB0002B466A465146404605F0A2FF00281AD13C
:101DC00005F108036A465146404605F04FFF0028DA
:101DD00011D1009818F80010401C0090012913D070
:101DE000C5F80490A088FFF775FA002803D1009A7F
:101DF000524518D00920BDE8FC8700E001E00E2024
:101E0000F9E700201F60F6E7A08801A9FFF77CFA38
:101E10000028F0D10198054900EB400001EB80005B
:101E200040686860DEE73760E5E70000542D002079
:101E30002DE9F843144607001D4688461ED0EDB133
:101E4000002005260090DCB1022020800520608063
:101E5000231D6A46384605F009FF00280CD104F11D
:101E600008036A464146384605F04AFF002803D178
:101E7000009A424507D00920BDE8F8830E20FBE711
:101E800000201E60F8E72E60F6E710B51468091B05
:101E9000072901D2092010BD015D19701168491C84
:101EA000084411600168C3F801108088A3F8050098
:101EB0001068801D1060002010BD10B51C68121B3A
:101EC000072A01D2092010BD02780A551A68521C4F
:101ED00011441A60D0F801200A60B0F8050088802B
:101EE0001868801D1860002010BD29B122B1136848
:101EF000022B03D2092070470E20704771230B700C
:101F000000B10120487002201060002070472DE9C8
:101F1000FC411F46154606000C4627D037B300206B
:101F2000CDE900700A46712301A9304605F063F837
:101F3000002819D1386818B10198A04213D117E0D0
:101F4000019BD81DA0420ED885B1F05C28705B1CA7
:101F5000F0189B1D0168C5F801108088A5F80500E0
:101F60000193A34204D00920BDE8FC810E20FBE7C9
:101F70000020F9E77FB582B04FF000001D46140045
:101F80000E46009014D09DB12868032821D37020FC
:101F90002070012000906B46214602A82A6805F0B7
:101FA000BCFE002806D1002E06D04FF0010105E04E
:101FB0004FF00E0006B070BD4FF0000100982154A4
:101FC00000F10100009012D02A6800F107018A4256
:101FD00001D20920EEE731782154401C2118D6F8AF
:101FE00001200A60B6F805208A80801D00902860D4
:101FF0000020DFE71346702204F0EABF38B581B154
:102000007BB10078C0F34005044665F35F04C0F37C
:10201000800044EA80008DF80000684605F07DFEEF
:1020200038BD0E2038BD2DE9FE4F1F46DDE90C54AA
:1020300090468946824625B31CB300200190722049
:102040008DF8080001AB294602A8226805F065FE5C
:10205000002814D101AE00962A464946504623680E
:1020600003F0F2FC00280AD100962A463946404681
:10207000236803F0E9FC002801D101992160BDE843
:10208000FE8F0E20FBE71346722204F0A1BF000072
:102090002DE9FC4104464FF0000015460E0001906A
:1020A00007D035B12F680221022F04D20920BDE8E4
:1020B000FC810E20FBE77322327001220192002C7A
:1020C00000D001E04FF000027270019140D001ABEE
:1020D0003A463146204605F020FE0028E7D11D484B
:1020E000009001AB3A463146606803F0B5F900282C
:1020F000DDD101AB3A46314604F1080005F00DFE92
:102100000028D4D11448009001AB3A463146E0682B
:1021100003F0A2F90028CAD101AB3A46314604F1D6
:10212000100005F0B2FD0028C1D101AB3A4631469E
:1021300004F1120005F0A9FD0028B8D101AB3A4620
:10214000314604F11400FFF759FF0028AFD101997F
:102150002960ACE7BB1E0000253600001346732241
:1021600004F036BF29B122B11368022B03D2092033
:1021700070470E20704779230B7000B10120487022
:1021800002201060002070472DE9FC411D461746D3
:1021900006000C4611D085B10020CDE900500A465A
:1021A000792301A9304604F026FF002806D12868CB
:1021B00030B10198A0420ED10FE00E20BDE8FC81A5
:1021C0000198801CA04206D83B4601AA2146304611
:1021D00005F02CFDEDE70920F0E70020EEE72DE902
:1021E000F0411F4615000E460ED06FB13968042924
:1021F00019D375212970691C05F029FD401C002E9A
:1022000006D04FF0010105E04FF00E00BDE8F0816F
:102210004FF00001295400F101041AD0396804F18B
:102220000900814201D20920F0E72919308805F020
:102230000EFD04442919708805F009FD044429198C
:10224000B08805F004FD04442919F08805F0FFFC6E
:10225000044400203C60D9E71346752204F0B8BE60
:102260002DE9F041074610680E46801C15461C46B5
:10227000B0421AD8384605F0D9FC2868801CB04214
:1022800013D8A31C2A463146384605F0CFFC2868EF
:10229000801CB04209D8231D2A463146384605F035
:1022A000C5FC2868801CB04202D90920BDE8F08135
:1022B000A31D2A463146384605F0B8FC0020F5E754
:1022C00038B5047804F00F0024F00F0404438DF8AF
:1022D0000040684605F021FD38BD30B552B14BB124
:1022E0001C68022C1BD37D241470002905D04FF0EC
:1022F000010404E04FF00E0030BD4FF000045470B4
:102300004FF0020407D01C68042C08D30C8894708A
:10231000240AD47004241D68611C8D4201D2092056
:1023200030BD00B101201055641C00201C6030BD80
:10233000FFB583B01E460C9D0C46070022D00DB39E
:102340000020CDE900500A467D2301A9384604F05B
:1023500052FE002805D1286828B10198A0420FD16B
:10236000002007B0F0BD6EB105AB01AA214638468A
:10237000009603F039FB0028F3D10199A142F0D077
:102380000920EEE70E20ECE770B5049D53B14DB186
:102390002C68022C32D37C241C70002805D04FF00E
:1023A000010404E04FF00E0070BD4FF000045C70BB
:1023B0004FF0020405D02C68032C1FD300789870CE
:1023C00003241F2A01D9072070BD2E68E01C864215
:1023D00014D31819160A0270A41C4670002902D0E2
:1023E0004FF0010001E04FF00000185504F1010426
:1023F0000AD0286804EB0206864201D9092070BD84
:102400001819FEF791F8344600202C6070BD134671
:102410007C2204F0DDBD10B52AB123B11C68042C68
:1024200003D2092010BD0E2010BD76241470507008
:10243000000A9070D17004201860002010BD13466F
:10244000762204F0C5BD2DE9F0411D4617460E0069
:1024500015D0A5B1044605F060FC002810D12B462C
:102460003A463146601C05F058FC002808D12B463E
:102470003A463146A01CBDE8F04105F04EBC0E20A6
:10248000BDE8F0812DE9F041064610680F46091AB3
:1024900014461D46102909D3811910221846FEF74B
:1024A00043F8206810302060B84202D10920BDE80E
:1024B000F081315C287C61F3000028742168715C34
:1024C000490861F3410028742168715C890861F34F
:1024D000870028742068401C20600020E7E72DE971
:1024E000F041054618680E460027111A1C461129AE
:1024F00002D20920BDE8F081304410222946FEF7BF
:1025000013F8216810312160287CC0F34003024693
:1025100063F35F0220F00300104370542068401CF6
:1025200020603846E6E72DE9F04115460F460600E3
:102530000ED06DB11C46FFF7A5FF002809D104F1AC
:1025400012032A4639463046BDE8F04100F07BBD13
:102550000E20BDE8F0812DE9F0411D4617460E0022
:102560000ED06DB10446FFF7BAFF002809D12B4603
:102570003A46314604F11200BDE8F04100F07EBD5C
:102580000E20BDE8F0812DE9FE435FEA00084FF020
:10259000000014461D460F4601900AD04DB10B2F86
:1025A0004BD32C263CB128682C2807D20C20BDE840
:1025B000FE830E20FBE700201E60F8E71D20208030
:1025C0002C206080231D01AA404605F04FFB002807
:1025D000EDD104F1080301AA39464046FFF755FC46
:1025E0000028E4D104F10F0301AA3946404605F062
:1025F00087FB0028DBD102AB01AA3946404605F033
:102600007FFB0028D3D19DF80810207C4A0861F395
:10261000000062F34200C90861F3C7002074C008DB
:10262000009004F1110301AA3946404605F082FBEF
:102630000028BCD10199B94201D00920B7E72E602A
:10264000B5E72DE9F8435FEA00084FF000001446B3
:102650001D460F4600900AD04DB1032F1ED303260E
:102660003CB12868032806D20C20BDE8F8830E2070
:10267000FBE71E6015E01720208003206080231DEB
:102680006A46404605F0D2FA04F108036A46394624
:10269000404605F02AFB0098B84201D00920E4E743
:1026A0002E600020E1E700002DE9FC415FEA000810
:1026B0004FF0000014461D460F4600903CD0CDB3AD
:1026C000082F34D32C26B4B3192020802C2060800E
:1026D000231D6A46404605F0C9FA002828D104F1B6
:1026E00008036A463946404600F030F800281FD1FA
:1026F000617A49071CD5A08801A9FEF7D1FD002801
:1027000016D10198104900EBC00001EB80036A4626
:10271000394640461B1D00F00BFE002808D1A0885A
:10272000FEF7A4FD002803D10099B94209D0092081
:10273000BDE8FC8100E001E00E20F9E700201E600A
:10274000F6E72E60F4E700000C2D0020F8B50746F0
:1027500010681546081A0E461C46062801D20920A4
:10276000F8BDA4B3384605F0CBFA0028F8D16B4683
:102770002A463146384605F0C3FA0028F0D19DF8C4
:1027800000106078A31C61F30100890861F38200E6
:1027900060702A463146384600F0FAFD0028DFD145
:1027A000E31C2A463146384600F0F2FD0028D7D116
:1027B000231D2A463146384600F004FD0028CFD1BB
:1027C000631D2A463146384600F0FCFCF8BDFFE7A1
:1027D0000E20FBE72DE9F8435FEA00084FF0000008
:1027E00014461D460F4600900AD04DB1042F33D336
:1027F0000C263CB128680C2806D20C20BDE8F883D2
:102800000E20FBE71E602AE0122020800C20608052
:10281000231D6A46404605F009FA04F108036A469A
:102820003946404605F002FA04F10A036A46394681
:10283000404605F0FBF904F10C036A463946404670
:1028400005F0F4F904F10E036A463946404605F0F6
:10285000EDF90098B84201D00920CFE72E600020A2
:10286000CCE72DE9F8435FEA00084FF0000014467A
:102870001D460F4600900AD04DB1042F33D30C26CD
:102880003CB128680C2806D20C20BDE8F8830E2045
:10289000FBE71E602AE01F2020800C206080231DA3
:1028A0006A46404605F0C2F904F108036A46394613
:1028B000404605F0BBF904F10A036A463946404632
:1028C00005F0B4F904F10C036A463946404605F0B8
:1028D000ADF904F10E036A463946404605F0A6F903
:1028E0000098B84201D00920CFE72E600020CCE745
:1028F0002DE9F84306004FF00000144688461D46B7
:1029000000900BD055B1B8F1040F2CD306273CB181
:102910002868062806D20C20BDE8F8830E20FBE7C5
:102920001F6023E01A20208006206080231D6A4655
:102930004146304605F07AF90098217A04F10903FE
:10294000325C62F303012172325C401C120962F3B3
:102950000711217200906A464146304605F0C5F9DC
:102960000099414501D00920D6E72F600020D3E728
:102970002DE9F84307004FF0000014461D46884635
:10298000009008D03DB11A263CB128681A2807D219
:102990000C20BDE8F8830E20FBE700201E60F8E75E
:1029A0001A206080231D6A46384605F05FF900282A
:1029B000EFD104F108036A464146384600F009F8B1
:1029C0000028E6D1009A424501D00920E1E72E60B7
:1029D000DFE7F8B5074600208DF8000015460E46E3
:1029E0001C463846FFF751FA002828D1E31D2A4635
:1029F00031463846FFF749FA002820D104F10E038A
:102A00002A463146384605F07BF9002817D16B4637
:102A10002A463146384605F073F900280FD19DF853
:102A20000010E07B04F1100361F30000490861F33A
:102A30004700E0732A4631463846FFF711FCF8BDDF
:102A40002DE9F8435FEA00084FF0000014461D46E8
:102A50000F4600900AD04DB1032F1ED303263CB180
:102A60002868032806D20C20BDE8F8830E20FBE777
:102A70001E6015E01120208003206080231D6A461F
:102A8000404605F0D3F804F108036A46394640464B
:102A900005F02BF90098B84201D00920E4E72E6038
:102AA0000020E1E72DE9F84307004FF0000014464D
:102AB0001D468846009008D03DB105263CB12868E7
:102AC000052807D20C20BDE8F8830E20FBE7002084
:102AD0001E60F8E705206080231D6A46384605F031
:102AE000C5F80028EFD104F108036A46414638468C
:102AF00005F006F90028E6D1009A424501D00920E8
:102B0000E1E72E60DFE700002DE9FF415FEA000802
:102B10004FF0000014461D460F4601900BD055B1F2
:102B2000042F3FD3062644B12868062808D20C207B
:102B300004B0BDE8F0810E20FAE700201E60F7E740
:102B400006206080231D01AA404605F08FF800286A
:102B5000EED1A08802A9FEF7A3FB0028E8D10298D5
:102B6000124900EBC00001EB800004F10803006A89
:102B7000A0600F48009001AA3946404602F03EFC92
:102B80000028D5D103AB01AA3946404605F0B8F874
:102B90000028CDD19DF80C1001F00101217301999D
:102BA000B94201D00920C3E72E60C1E70C2D0020F7
:102BB000FB2F00002DE9FC4107004FF000001446F8
:102BC0001D468846009008D03DB10B263CB12868D0
:102BD0000B2806D20C20BDE8FC810E20FBE71E600E
:102BE00025E0152020800B206080231D6A46384692
:102BF00005F03CF80028EED1009801AB3918801D93
:102C00000A68A2608988A18100906A4641463846D8
:102C100005F076F80028DED19DF8040000F00100F0
:102C2000A0730099414501D00920D4E72E6000200F
:102C3000D1E72DE9F8435FEA00084FF000001446A1
:102C40001D460F4600900AD04DB1032F1ED3032618
:102C50003CB12868032806D20C20BDE8F8830E207A
:102C6000FBE71E6015E01C20208003206080231DF0
:102C70006A46404604F0DAFF04F108036A46394622
:102C8000404602F0D3FD0098B84201D00920E4E7A5
:102C90002E600020E1E72DE9F84307004FF0000027
:102CA00014461D468846009008D03DB10C263CB124
:102CB00028680C2807D20C20BDE8F8830E20FBE71B
:102CC00000201E60F8E7202020800C206080231D5B
:102CD0006A46384604F0CAFF0028EDD104F1090322
:102CE0006A4641463846FFF7D0F80028E4D104F19F
:102CF00008036A464146384605F002F80028DBD151
:102D0000009A424501D00920D6E72E60D4E72DE98C
:102D1000F8435FEA00084FF0000014461D460F46D6
:102D200000900AD04DB1042F20D318263CB128685A
:102D3000182806D20C20BDE8F8830E20FBE71E60A1
:102D400017E01420208018206080231D6A4640462A
:102D500004F06CFF04F108036A463946404600F06F
:102D60000AF80028E7D10098B84201D00920E2E72C
:102D70002E600020DFE7F8B515460E4607461C46D4
:102D8000FFF783F800281CD104F108032A463146D6
:102D9000384600F058F9002813D16B462A463146D0
:102DA000384604F0ADFF00280BD19DF80010A27C3E
:102DB0004B0861F3000263F34102890861F3820268
:102DC000A274F8BD2DE9F8435FEA00084FF0000057
:102DD00014461D460F4600900AD04DB1072F23D34D
:102DE00007263CB12868072807D20C20BDE8F883E5
:102DF0000E20FBE700201E60F8E71320208007204C
:102E00006080231D6A46404604F030FF0028EDD163
:102E100004F108036A463946404600F009F80028E4
:102E2000E4D10099B94201D00920DFE72E60DDE747
:102E300000F042BB2DE9F8435FEA00084FF00000C4
:102E400014461D460F4600900AD04DB1032F1ED3E5
:102E500003263CB12868032806D20C20BDE8F8837D
:102E60000E20FBE71E6015E003206080231D6A46EC
:102E7000404604F0DBFE04F108036A46394640464A
:102E800000F00AF80028E9D10098B84201D00920E2
:102E9000E4E72E600020E1E730B530B12AB11568D3
:102EA00000248D4203D1092030BD0E2030BD455D88
:102EB000197865F3000119701568455D6D0865F3B3
:102EC000410119701568455DAD0865F382011970FF
:102ED0001568405DC00860F3C30119701068401C9C
:102EE0001060204630BD2DE9F84307004FF0000088
:102EF0001D461446009003D015B1032922D102E0EB
:102F00000E20BDE8F883032624B12868032803D2E5
:102F10000C20F6E71E6018E01B2020804FF003080D
:102F2000A4F80280231D6A464146384604F07EFE1E
:102F300004F108036A464146384604F0D6FE00987C
:102F4000032801D00920DCE72E600020D9E72DE915
:102F5000F04115460F4606000ED06DB11C4600F03C
:102F600026F8002809D104F110032A4639463046D4
:102F7000BDE8F041FEF789BF0E20BDE8F0812DE9E4
:102F8000F0411D4617460E000ED06DB1044600F00C
:102F900021F8002809D12B463A46314604F11000A9
:102FA000BDE8F041FEF789BF0E20BDE8F08110B505
:102FB0001446024618462368C91A102901D209206E
:102FC00010BD99181022FDF7AFFA2068103020606C
:102FD000002010BD10B51C460B4601462068121A91
:102FE000102A01D2092010BD18441022FDF79CFAC6
:102FF000206810302060002010BD10B51446024635
:103000002068091A402901D2092010BD81184022E8
:103010001846FDF789FA206840302060002010BD76
:1030200010B51C461B68D21A402A01D2092010BDD7
:103030000B44014640221846FDF776FA20684030DE
:103040002060002010BD2DE9F04114460E460746D1
:103050001D4604F00BFE002804D12168721A082ACC
:1030600002D20920BDE8F08139440A6845F8022FF0
:1030700049686960216808312160F3E72DE9F04172
:103080001C4616460F46054604F0FFFD0146206823
:10309000321A082A02D20920BDE8F081384455F8D6
:1030A000022F02606A68426020680830206008468B
:1030B000F2E729B122B11368022B03D2092070472D
:1030C0000E2070477B230B7000B101204870022056
:1030D0001060002070472DE9FC411F46804600200B
:1030E000CDE9007014460D460A467B2301A94046EF
:1030F00003F081FF060002D1386810B10020BDE85E
:10310000FC8104B301980830A8421AD8234601AACA
:103110002946404604F08AFDA31C01AA29464046E0
:1031200004F084FD231D01AA2946404604F07EFDDB
:10313000A31D01AA2946404604F078FD0198A84243
:1031400003D00920DBE70E20D9E73046D7E72DE989
:10315000F04116460C0005460AD04EB130680228F0
:1031600013D37A202070002D06D04FF0010005E027
:103170004FF00E00BDE8F0814FF0000060704FF09E
:10318000020018D030680A2801D20920F2E7A11CF9
:10319000288804F061FD871CE119688804F05CFD53
:1031A0000744E119A88804F057FD0744E119E888AD
:1031B00004F052FD384430600020DBE713467A22E9
:1031C00003F006BF30B530B12AB1156800248D4236
:1031D00003D1092030BD0E2030BD455D197865F35F
:1031E000000119701568455D6D0865F3410119709E
:1031F0001568455DAD0865F3820119701568405D7D
:10320000C00860F3C30119701068401C10602046AC
:1032100030BD70B539B133B104461D680020954208
:1032200003D1092070BD0E2070BD227802F001028A
:103230004A5526781D68C6F3400642EA46024A55BA
:1032400025781E68C5F3800542EA85058D552478EA
:103250001A68C4F3C00445EAC4048C541968491CB4
:10326000196070BDF8B507461448009015460E4623
:103270001C46384602F0C2F800281DD110480090C4
:10328000231D2A463146384602F0B8F8002813D1EB
:103290000C48009004F108032A463146384602F0F3
:1032A000ADF8002808D10848009004F10C032A4624
:1032B0003146384602F0A2F8F8BD0000272500008C
:1032C0004F2F0000D7350000FB2F0000F8B5044653
:1032D000134800901D4616460F46206802F0BCF8C1
:1032E00000281BD10F4800902B46324639466068B3
:1032F00002F0B2F8002811D10B4800902B4632465C
:103300003946A06802F0A8F8002807D107480090C5
:103310002B4632463946E06802F09EF8F8BD0000C0
:10332000572500007F2F0000FD35000021300000F0
:103330002DE9F04115460F4606000ED06DB11C4632
:10334000FFF790FF002809D104F110032A463946FF
:103350003046BDE8F041FFF785BF0E20BDE8F081A3
:103360002DE9F0411D4617460E000ED06DB1044602
:10337000FFF7ACFF002809D12B463A46314604F14D
:103380001000BDE8F041FFF7A1BF0E20BDE8F081BD
:1033900038B51C4613688B4201D1092038BD6B46F5
:1033A00004F0AEFC0028F9D1009920784A0861F3B6
:1033B000000062F341008A0862F38200C90861F3E9
:1033C000C3002070002038BD2DE9FF4184B098462D
:1033D000DDE90E641746BEB3B4B37F208DF8080054
:1033E00025680020019001AB2A46314602A804F06E
:1033F00094FC002825D101AB2A46314604A804F0EC
:1034000044FC00281DD101AB2A46314605A804F032
:1034100084FC002815D10E48009001AB2A463146A5
:10342000384602F019F800280BD10A48009001AB89
:103430002A463146404602F00FF8002801D1019992
:10344000216008B0BDE8F081FFE70E20F9E7000039
:1034500053350000613300007FB582B01C460D4635
:10346000060024D01CB30020CDE900400A467F238B
:1034700001A9304603F0BFFD002805D1206828B11E
:103480000198A84211D1002006B070BD049870B117
:103490000848009004AB01AA2946304601F0AEFF6F
:1034A0000028F1D10199A942EED00920ECE70E20C5
:1034B000EAE7000031330000F8B51C4615460E4619
:1034C00007466B4604F01CFC002841D19DF8001013
:1034D0002078631C61F3000020709DF800102A46DC
:1034E000490861F3410020709DF80010890861F3DC
:1034F000820020709DF80010C90861F3C30020709D
:103500009DF80010090961F3061020709DF8001065
:10351000C90961F3C71020703146384604F0F0FB4A
:10352000002815D1A31C2A463146384604F0E8FB92
:1035300000280DD1E31C2A4631463846FFF742FEEB
:10354000002805D1231D2A4631463846FFF73AFEAA
:10355000F8BDF8B50446007816460F46C0F34002A1
:10356000014662F35F01C0F3800241EA8201C0F3C9
:10357000C00241EAC201C0F3021241EA021120F086
:103580007F0001438DF800101D46324639466846DB
:1035900004F0C3FB00281DD12B4632463946601C7F
:1035A00004F0BBFB002815D12B4632463946A01C3F
:1035B00004F0B3FB00280DD12B4632463946E01CFF
:1035C000FFF727FE002805D12B4632463946201D3D
:1035D000FFF71FFEF8BD10B5144602462068091A11
:1035E000102901D2092010BD811810221846FCF7BD
:1035F0009BFF206810302060002010BD10B51C46D5
:103600001B68D21A102A01D2092010BD0B440146B2
:1036100010221846FCF788FF206810302060002038
:1036200010BD00002DE9F84F984692465FEA010967
:103630000DD0B8F1000F0AD0044600790025082803
:1036400002D8207B082804D90720BDE8F88F0E2077
:10365000FBE743464946201D04F05FFB0026009629
:10366000434652464946206801F0F6FE164F09E0EF
:10367000009720684346524650F82500494601F01D
:10368000EBFE6D1C2079A842F2D8434652464946CB
:1036900004F10C0004F041FB0096434652464946B3
:1036A000A06801F0D9FE0025084E09E00096A06848
:1036B0004346524650F82500494601F0CDFE6D1CA8
:1036C000217BA942F2D8C0E7BB1E0000D52F000025
:1036D0002DE9F04115460F4606000ED06DB163B1DD
:1036E0001C4604F0C3FA002808D1A31C2A46394618
:1036F0003046BDE8F04101F0EDBB0E20BDE8F081A1
:103700002DE9F04115460F4606000ED06DB163B1AC
:103710001C4604F0ABFA002808D1A31C2A463946FF
:103720003046BDE8F04101F069BC0E20BDE8F081F3
:103730002DE9F04186B007004FF000001E46144608
:10374000884600902BD056B302AB6A46384604F048
:103750008DFA002820D103AB6A464146384604F072
:1037600085FA002818D104AB6A464146384604F071
:103770007DFA002810D100980190002301AA41464B
:10378000384600F027F8002806D1019D0835FCB125
:103790003068A84205D20C2006B0BDE8F0810E20AA
:1037A000FAE7BDF80800A080BDF80C00E080BDF885
:1037B0001000208104F10C036A464146384600F0AF
:1037C00009F80028E8D1009A424501D00920E3E732
:1037D0003560E1E72DE9F843164689465FEA0008BF
:1037E00018D0BEB11C466B4604F040FA002812D136
:1037F00034B3BDF800002080A31C32464946404641
:1038000004F07EFA002806D1A178012905D0114FD5
:10381000002511E00E20BDE8F8830F4FF8E700BF48
:1038200005EBC50004EB40033246494640461B1DEC
:10383000B8470028EFD16D1C2188A942F0D8EAE7EB
:10384000BDF80010042201EBC10102EB410131601F
:10385000E1E70000D1360000013700002DE9F04714
:103860008AB05FEA000A4FF0000098461546894684
:1038700002902ED0B8F1000F2BD0B9F1080F7DD3F4
:1038800006AB02AA4946504604F0D0F907AB02AA9B
:103890004946504604F0CAF908AB02AA49465046C8
:1038A00004F0C4F901AB02AA4946504604F0BEF93F
:1038B000BDF804000E2100EB800001EB4007002D55
:1038C0007ED0D8F80000B84205D20C200AB0BDE87E
:1038D000F0870E20FAE7322028806F80BDF81800AC
:1038E000A880BDF81C00E880BDF820002881BDF844
:1038F0000400A881029900EBC0000144494569D841
:10390000002660E006EB860005EB400404F10E03A0
:1039100002AA4946504604F089F904F1100302AAAC
:103920004946504604F0E1F904AB02AA4946504624
:1039300004F0DBF99DF81010A07C61F30000A07486
:103940009DF81010490861F34100A0749DF8101013
:10395000890861F38200A0749DF81010C90861F312
:10396000C300A0749DF81010090961F30410A0743D
:103970009DF81010490961F3451000E02AE0A07499
:103980009DF8101009AB890961F38610A07402AA92
:103990004946504604F0A9F99DF8240004F11403A7
:1039A00000F00100E07402AA4946504604F03EF9D6
:1039B00004F1160302AA4946504604F037F900E024
:1039C0000AE0761CB6B2BDF8040086429AD302998A
:1039D000494501D0092079E70020C8F8007075E753
:1039E0002DE9F04186B01D4614465FEA00080E46F8
:1039F00045D0EDB300200190062E3CD308202F685F
:103A0000286003AB01AA404604F010F904AB01AAF8
:103A10003146404604F00AF905AB01AA314640465A
:103A200004F004F900207CB12868B84223D835207E
:103A30002080BDF80C00A080BDF81000E080BDF82B
:103A40001400208104F10C0029680090791A029179
:103A500002AB01AA3146404600F014F800280BD111
:103A60002968029A1144296004B16180019900E03B
:103A700005E0B14200D0092006B0BDE8F0810E207B
:103A8000FAE700002DE9FC5F8846116883460C9C2C
:103A9000A8EB01001E4615464FF0000A042839D352
:103AA0006B464146584604F0C1F801AB2A464146F0
:103AB000584604F0BBF8BDF80000042101EBC00338
:103AC000BDF80410326801FB00333360C4B3618079
:103AD0002080306890421DD8BDF80000002604EB1D
:103AE000C0073F1D27E000BF04EBC60000F104093A
:103AF00087602968A8EB010002280BD34B462A46B1
:103B00004146584604F092F828686288A8EB000104
:103B10008A4202D90920BDE8FC9F00EB0B01D9F8CD
:103B20000400FCF701FD61882868761C08442860C1
:103B3000BDF804000744BDF800008642D4D305E078
:103B4000FFE72A68891C00FB012028605046E2E755
:103B5000F8B505004FF0000014460E4600900AD05C
:103B60004BB10A2E2CD3E8880A3034B1196881424F
:103B700006D20C20F8BD0E20F8BD18600020F8BD5C
:103B8000186037202080231D6A463146284604F0FD
:103B90004DF8A31D6A463146284604F047F804F163
:103BA00008036A463146284604F040F804F10C0345
:103BB0006A463146284600F005F80099B142DED049
:103BC0000920F8BD2DE9F041074610681546081A8E
:103BD0000E461C464FF00008022807D3384604F072
:103BE00025F828682288311A8A4202D90920BDE8BE
:103BF000F081C119A01CFCF797FC218828680844B3
:103C000028604046F3E72DE9F04786B05FEA000AF6
:103C10004FF000001F461446894600902AD04FB34B
:103C2000B9F1080F63D302AB6A464946504603F028
:103C3000FDFF03AB6A464946504603F0F7FF04AB6D
:103C40006A464946504603F0F1FF01AB6A464946D1
:103C5000504603F0EBFFBDF804000E2100EB4000DE
:103C600001EB4006ECB33868B04205D20C2006B038
:103C7000BDE8F0870E20FAE7332020806680BDF88B
:103C80000800A080BDF80C00E080BDF81000208185
:103C9000BDF80400A081009900EB80000144494573
:103CA00025D800251AE005EB450004EB400808F193
:103CB0000E036A464946504603F0B8FF08F1100368
:103CC0006A464946504603F0B1FF08F112036A46BE
:103CD0004946504604F009F86D1CADB2BDF8040029
:103CE00000E006E08542DED30099494501D0092075
:103CF000BDE700203E60BAE72DE9F8435FEA00081F
:103D00004FF00000144689461F4600900ED06FB158
:103D1000B9F10B0F4AD3B8F8096006F10E053CB1B2
:103D20003868A84206D20C20BDE8F8830E20FBE7D5
:103D30001D603EE0392020806580231D6A4649468B
:103D4000404603F073FFA31D6A464946404603F010
:103D50006DFF04F108036A464946404603F066FFDA
:103D600004F10C036A464946404603F05FFF04F144
:103D70000E036A464946404603F0B7FF04F11003BC
:103D80006A464946404603F051FF009882194A4569
:103D90000CD84EB108EB0001324604F11200FCF7DA
:103DA000C3FB009830440090484501D00920BBE790
:103DB0003D600020B8E700002DE9F04786B05FEADB
:103DC000000A4FF0000098461446894600902BD018
:103DD000B8F1000F28D0B9F1080F68D302AB6A46DA
:103DE0004946504603F022FF03AB6A464946504617
:103DF00003F01CFF04AB6A464946504603F016FF29
:103E000001AB6A464946504603F010FFBDF8040076
:103E10000E2101EBC006ECB3D8F80000B04205D289
:103E20000C2006B0BDE8F0870E20FAE73020208095
:103E30006680BDF80800A080BDF80C00E080BDF8E9
:103E400010002081BDF80400A0810099C0EBC000E3
:103E5000014449452BD8002522E000BF04EBC507EB
:103E600007F10E036A464946504603F0DFFE07F1AC
:103E700010036A464946504603F037FF07F1120324
:103E80006A464946504603F0D1FE07F114036A46DC
:103E9000494600E00DE0504603F0C8FE6D1CADB28F
:103EA000BDF804008542D9D30099494501D00920C5
:103EB000B7E70020C8F80060B3E72DE9F8435FEAF0
:103EC00000084FF00000144689461F4600900ED0AF
:103ED0006FB1B9F10C0F4AD3B8F80A6006F10E05BC
:103EE0003CB13868A84206D20C20BDE8F8830E2009
:103EF000FBE71D603EE0362020806580231D6A467A
:103F00004946404603F092FEA31D6A464946404694
:103F100003F08CFE04F108036A464946404603F06C
:103F200085FE04F10C036A464946404603F07EFED6
:103F300004F10E036A464946404603F077FE04F159
:103F400010036A464946404603F070FE0098821905
:103F50004A450CD84EB108EB0001324604F112007C
:103F6000FCF7E2FA009830440090484501D009205F
:103F7000BBE73D600020B8E7F8B506004FF0000051
:103F800014460D4600900ED06BB1082D37D3F08843
:103F90000A2100EB800001EB400034B11968814236
:103FA00006D20C20F8BD0E20F8BD18600020F8BD28
:103FB00031202080231D6A462946304603F056FEF4
:103FC0000028F4D1A31D6A462946304603F04EFE70
:103FD0000028ECD104F108036A462946304603F074
:103FE00045FE0028E3D104F10C036A462946304619
:103FF00000F007F80028DAD10099A942D7D00920AB
:10400000F8BD2DE9F8431C4615460E4680466B4622
:1040100003F02CFE002813D1BDF8001024F8021B79
:10402000002709E023462A463146404600F0BBF807
:10403000002805D10A347F1CBDF800108F42F1D34F
:10404000BDE8F8832DE9F8435FEA00084FF000006F
:1040500014461D460F4600900AD04DB1032F1ED3C3
:104060000D263CB128680D2806D20C20BDE8F88347
:104070000E20FBE71E6015E03A2020800D206080B6
:10408000231D6A46404603F0D1FD04F10C036A4645
:104090003946404603F029FE0098B84201D0092075
:1040A000E4E72E600020E1E72DE9F8435FEA00082D
:1040B0004FF00000144689461F4600900ED06FB1A5
:1040C000B9F10D0F51D3B8F80B6006F110053CB1F2
:1040D0003868A84206D20C20BDE8F8830E20FBE722
:1040E0001D6045E0382020806580231D6A464946D2
:1040F000404603F09BFDA31D6A464946404603F037
:1041000095FD04F108036A464946404603F08EFDDA
:1041100004F10C036A464946404603F087FD04F16A
:104120000E036A464946404603F0DFFD04F11003E2
:104130006A464946404603F079FD04F112036A4697
:104140004946404603F072FD009882194A450CD852
:104150004EB108EB0001324604F11400FCF7E4F91B
:10416000009830440090484501D00920B4E73D60F4
:104170000020B1E72DE9F041804610680027081AB9
:1041800015460E461C46042802D20920BDE8F081DF
:10419000404603F04BFDA31C2A463146404603F03F
:1041A00045FD3846F2E72DE9F04115460E46074633
:1041B0001C4603F05BFD002807D1A31C2A463146AC
:1041C0003846BDE8F04100F002B8BDE8F0812DE9C5
:1041D000F04115460E4607461C4600F00FFF00282A
:1041E00007D1231D2A4631463846BDE8F041FFF786
:1041F000C1BFBDE8F0810000F8B504461948009041
:104200001D4616460F46206801F026F9002820D1E9
:10421000154800902B4632463946606801F01CF97B
:10422000002816D12B463246394604F10A0003F025
:104230002CFD00280DD12B463246394604F10C00E6
:1042400003F023FD002804D12189B1F5007F01D9B5
:104250000720F8BD009533463A46206901F0DCFBA3
:10426000F8BD00002D5000006D4200002DE9F04126
:104270001D4616460F460446FEF722F800281CD1BC
:104280002B4632463946601CFEF71AF8010014D15D
:10429000A078C0F34102012A00D00721034662F34F
:1042A0005F03C0F3C00243EAC202C0F3001042EA57
:1042B00000122868B04202D10920BDE8F0813A54CA
:1042C0002868401C28600846F7E72DE9F0410746BA
:1042D00010681546081A0E461C46082802D2092006
:1042E000BDE8F081384603F0A1FCA31C2A46314604
:1042F000384603F09BFC231D2A463146384603F01E
:1043000095FCA31D2A463146384603F08FFC002059
:10431000E6E700002DE9FC41044600781646884691
:10432000C0F34002014662F35F01C0F3800241EA3C
:104330008201C0F3C00241EAC201C0F3001241EAA7
:104340000211C0F3401241EA4211C0F3801041EA69
:1043500080108DF804001D463246414601A803F046
:10436000DCFC00281CD160782B46C0F3400161F3CF
:104370005F008DF804003246414601A803F0CDFCF1
:1043800000280DD12B463246414604F1080003F0C7
:104390007CFC002804D16189B1F5007F02D9072097
:1043A000BDE8FC81009533464246606801F034FB6D
:1043B0000028F5D1124800902B4632464146E0686D
:1043C00001F04AF80028EBD10E4F00972B463246F9
:1043D0004146206901F040F80028E1D100972B46C2
:1043E00032464146606901F037F80028D8D100977D
:1043F0002B4632464146A06901F02EF8D0E7000076
:10440000317000006D4200002DE9FF4784B09A46EC
:10441000DDE9107490468946C7B3BCB30025A220DD
:1044200001958DF80800266801AB3246394602A88E
:1044300003F073FC002826D101AB3246394604A8AC
:1044400003F023FC00281ED11248009001AB324635
:104450003946484601F000F8002814D10E48009073
:1044600001AB32463946404600F0F6FF00280AD13B
:1044700001AB324639465046009500F0EDFF00286A
:1044800001D10199216008B0BDE8F087FFE70E2057
:10449000F9E7000015430000F94100002DE9FC4157
:1044A0001C46174606000D4613D094B10020CDE9F6
:1044B00000400A46A22301A9304602F09CFD0028D4
:1044C00005D1206838B10198A84211D10020BDE87B
:1044D000FC810E20FBE7074800903B4601AA2946D5
:1044E000304600F08BFF0028F1D10199A942EED0AF
:1044F0000920ECE7CB420000F8B5044600208DF817
:10450000000020781D4600F001008DF800001646DE
:104510000F46684603F001FC002805D12B463246C1
:104520003946201D03F0CBFBF8BD2DE9F8435FEAC7
:1045300000084FF0000014461D460F4600900AD0B8
:104540004DB1032F1DD304263CB12868042806D2A0
:104550000C20BDE8F8830E20FBE71E6014E053201A
:10456000208004206080231D6A46404603F05EFBE5
:10457000A31D6A463946404603F058FB0098B842EE
:1045800001D00920E5E72E600020E2E72DE9FE4397
:104590001D460A9C174689465FEA000821D007B3EA
:1045A00008202E6828606B46404603F05FFB002819
:1045B00015D101AB3A464946404600F01FFD0028A0
:1045C0000DD102AB3A464946404603F04FFB002866
:1045D00005D1002C03D02968B14204D90920BDE8D7
:1045E000FE830E20FBE7BDF8001021800199C4F87E
:1045F0000210BDF80810E180F1E700002DE9F0415C
:1046000086B01D461446060088462BD055B30020C0
:10461000019002202F68286003AB01AA304603F006
:1046200025FB00281FD144B12868B8423BD851204F
:104630002080BDF80C00A080A01D29680090791A88
:10464000029102AB01AA4146304600F033F8070060
:1046500009D128680299084428600CB3A07902287F
:1046600004D01DE00E2006B0BDE8F081A07B062836
:1046700016D1A08804A9FCF747FE052810D004989D
:1046800001AA00EB40010A4800EB810303F1080096
:104690000090414630461B1D01F0A6F90700E2D10B
:1046A0000199414501D00920DDE73846DBE70000EC
:1046B000542D00202DE9FE431D460A9C16468846CF
:1046C000070015D0A5B19EB101AB03F019FB00287E
:1046D0000CD1296802200291286000208CB19DF83D
:1046E000040020702868884204D90920BDE8FE83B0
:1046F0000E20FBE79DF80400012801D0022806D116
:10470000A01C9DF80410012903D0022909D00B2018
:10471000ECE7009002AB324641463846FFF736FFE1
:1047200006E0009002AB32464146384600F0E4F81D
:104730000028DBD12968029A11442960D6E7F8B530
:104740000E4600211C46009148B144B1022E16D3FA
:10475000022532B12168022905D20C20F8BD0E20B5
:10476000F8BD1D600EE05421118002215180131DFF
:104770006A46314603F05AFA0098B04201D0092047
:10478000F8BD25600020F8BD2DE9F8435FEA000878
:104790004FF0000014461D460F4600900AD04DB160
:1047A000032F1DD303263CB12868032806D20C2012
:1047B000BDE8F8830E20FBE71E6014E05220208045
:1047C00003206080231D6A46404603F02FFAA31D94
:1047D0006A463946404603F088FA0098B84201D04C
:1047E0000920E5E72E600020E2E72DE9F8435FEAC3
:1047F00000084FF0000014461D460F4600900AD0F6
:104800004DB1032F1DD303263CB12868032806D2DF
:104810000C20BDE8F8830E20FBE71E6014E0552055
:10482000208003206080231D6A46404603F0FEF985
:10483000A31D6A463946404603F057FA0098B8422D
:1048400001D00920E5E72E600020E2E72DE9F041E4
:1048500086B01D4614460600884629D045B3002080
:10486000019002202F68286003AB01AA304603F0B4
:10487000FDF900281DD134B12868B84236D8BDF8FA
:104880000C00A080A01D29680090791A029102AB4B
:1048900001AA4146304600F02FF8070009D12868E8
:1048A000029908442860F4B1207B062804D01AE05D
:1048B0000E2006B0BDE8F081A08804A9FCF724FD15
:1048C000052810D0049801AA00EB4001094800EB2C
:1048D000810303F108000090414630461B1D01F0A2
:1048E00083F80700E5D10199414501D00920E0E7AF
:1048F0003846DEE7542D00202DE9F0478AB01C46EB
:10490000129F15468A465FEA000859D0002D57D0FD
:10491000002C55D00C20D4F80090206004AB404609
:1049200003F0A4F9002848D107AB2A465146404677
:1049300000F064FB002840D106AB2A4651464046B1
:1049400003F0DEF9002838D105AB2A46514640462F
:1049500003F0D6F9002830D103AB2A465146404631
:1049600003F084F9002828D102AB2A46514640467C
:1049700003F07CF9060020D1BDF80810206801443E
:1049800021601FB33846494516D8BDF81010018084
:104990000799C0F802109DF8181081719DF8141045
:1049A000C171BDF80C100181BDF808204281296851
:1049B000AAEB01039A4205D909200AB0BDE8F087A5
:1049C0000E20FAE741440C30FBF7AEFDBDF80810AD
:1049D0002868084428603046EFE72DE9F0471F4675
:1049E00015000E4605D027B136B1B16821B9F1687E
:1049F00011B10E20BDE8F0873968052944D3A621FE
:104A00002970691C03F02DF9401C002E02D04FF0D4
:104A1000010101E04FF00001295400F1010445D0EB
:104A2000396804F1070081422ED32919308803F038
:104A300018F90444B0782855641C2919B08803F08B
:104A400010F90444B0684FF0000990B33A68211D92
:104A50008A4219D30088B0F5007F01D90720C9E741
:104A60004FF0010805F80480B068641C291900881B
:104A700003F0F7F80444F068A8B1B0680188601C3E
:104A800008443968884201D90920B3E705F8048051
:104A9000B068641CF16802882819FBF745FDB0680E
:104AA0000088044402E005F80490641C00203C6087
:104AB000A0E7FFE705F80490641C05F80490F4E70C
:104AC0002DE9FC411F46144606000D4613D094B153
:104AD0000020CDE900400A46A62301A9304602F095
:104AE0008AFA002805D1206838B10198A8420FD071
:104AF0000920BDE8FC810E20FBE7064800903B46FC
:104B000001AA2946304600F079FC0028F1D1ECE7F3
:104B10000020EEE76D7C000030B5039C5BB154B122
:104B20002568042D1ED3A0251D705870002905D0BE
:104B30004FF0010004E04FF00E0030BD4FF00000D8
:104B400098704FF0030009D0206806280AD30D881A
:104B5000DD702D0A1D718878587106202568411C6A
:104B60008D4201D2092030BD0AB1012100E00021AF
:104B70001954401C2060002030BD2DE9FC411E4628
:104B800080460020CDE9006017460C460A46A02367
:104B900001A9404602F02FFA050005D1306828B17E
:104BA0000198A04210D10020BDE8FC8177B10198A6
:104BB000801CA04208D83B4601AA2146404603F08B
:104BC00035F80198A04203D00920EDE70E20EBE76D
:104BD0002846E9E77FB582B00B46DDE90A460021A9
:104BE000154600917CB176B13168082920D3A921FE
:104BF00021706070000AA07003200090002B06D086
:104C00004FF0010005E04FF00E0006B070BD4FF010
:104C10000000E0704FF00400009018D0B5F5007F60
:104C200001D90720F1E7316805F10A00884201D96E
:104C30000920EAE72571290A617106200090A01D6C
:104C40002A461946FBF770FC0098284400906B46F2
:104C5000214605A8326803F032F80028D5D1009823
:104C600030600020D1E71346A92202F0B1B92DE946
:104C7000FF411D461446070088462DD064B35DB33E
:104C80000020019002202E68286003AB01AA38465C
:104C900002F0ECFF00281CD1231D01AA4146384632
:104CA00002F0E4FF002814D12868A41D301A0290F5
:104CB00002AB01AA41460094384600F00FF80028E4
:104CC00007D12968029A11442960019A424500D00F
:104CD000092004B0BDE8F0810E20FAE72DE9FC4779
:104CE0001F460A9C15468A465FEA000829D045B34C
:104CF0003FB3D7F80090286801900020ADF800007D
:104D00006B4601AA404602F0B1FF060017D1BDF87C
:104D100000102144081B001D3860ECB148450DD837
:104D200023462A465146404600F018F8060006D1B0
:104D300028682288AAEB00018A4204D90920BDE82C
:104D4000FC870E20FBE700EB0801201DFBF7ECFBC6
:104D500021882868084428603046F0E72DE9F041B2
:104D600015460F4606000ED06DB163B11C4602F029
:104D70007DFF002808D1A31C2A4639463046BDE8ED
:104D8000F04102F073BF0E20BDE8F08130B504465B
:104D900085B04FF6FF70A082134B08680D46A061E6
:104DA0000FCB8DE80F0004F11201684602F022F8E3
:104DB000002817D1A07C8DF8120041F22350ADF8E5
:104DC0001000224604A9012001F0A2FF002809D109
:104DD0002946204600F0FAF9002803D1294620464A
:104DE00000F0A2FD05B030BD507F00000A88102AF7
:104DF00010D0112A10D0502A11D131F8062F438833
:104E00009A420CD14A89012A09D18269002A06D026
:104E1000097B1047898801E04FF6FF718182704756
:104E200003B585B0002201210092ADF81010019267
:104E3000029203928DF802104189ADF8001006A984
:104E4000039104A90291808A694601F03BFF07B0F3
:104E500000BD000000B51B4889B0002340680790E2
:104E60004822194907A802F0A3FC08B1FCF7DAFAB6
:104E70006A460121002002F085FC08B1FCF7D2FA55
:104E8000124801F0D7FF08B1FCF7CCFA684602F0EF
:104E9000F9FB08B1FCF7C6FA05A801F047FD08B117
:104EA000FCF7C0FA05A9002001F060FD08B1FCF78D
:104EB000B9FA074802F0DCFB002801D0FCF7B2FA8F
:104EC00009B000BD447F000030230020E81F00200F
:104ED000F51C000070B514460246184623680025EC
:104EE000C91A102901D2092070BD99181022FBF7A8
:104EF0001BFB206810302060284670BD70B51C4632
:104F00000B46014620680025121A102A01D20920FA
:104F100070BD18441022FBF707FB2068103020609A
:104F2000284670BD70B5049D53B14DB12C68022C5C
:104F30001DD365241C70002805D04FF0010404E047
:104F40004FF00E0070BD4FF000045C704FF0020493
:104F500009D02C68052C0AD306889E70360ADE70AC
:104F60008078187105242E68A01C864201D2092081
:104F700070BD09B1012000E000201855641C0AB181
:104F8000012000E000201855641C00202C6070BD3A
:104F90002DE9FC4107460020089DCDE9005016464A
:104FA00098460C460A46652301A9384602F023F8C4
:104FB00000281FD1286818B10198A04219D11BE020
:104FC00001980146401CA04213D87D5C0190002E40
:104FD000F2D0B8F1000F0AD04119A14209D839180E
:104FE0002A464046FBF7A0FA019828440190357004
:104FF000E2E70920BDE8FC810020FBE72DE9F04154
:10500000074610681546081A0E461C46032802D2A9
:105010000920BDE8F081384602F008FEA31C2A46AC
:105020003146384602F061FE0020F2E72DE9F041FA
:105030001D4616460F46044602F027FE002807D1FB
:105040002B4632463946A01CBDE8F04102F065BE51
:10505000BDE8F0812DE9FE431C46150088468146D7
:1050600025D024B300260196276863208DF8080018
:1050700001AB3A46294602A802F04FFE002814D19F
:105080000C48009001AB3A462946484600F0E4F946
:1050900000280AD101AB3A4629464046009600F066
:1050A000DBF9002801D101992160BDE8FE830E20C3
:1050B000FBE70000FD4E00002DE9FC411C461646B2
:1050C00007000D4614D09CB196B10020CDE90040F8
:1050D0000A46632301A9384601F08DFF002805D157
:1050E000206838B10198A84211D10020BDE8FC81A8
:1050F0000E20FBE707480090334601AA29463846B0
:1051000000F07CF90028F1D10199A942EED00920E4
:10511000ECE70000017D00002DE9F84F4FF000089A
:10512000DDE90AA681468DF8008010680F461C460E
:105130001546B84216D06B46484602F0D6FD9DF89B
:105140000000012805D00CB1C4F800800020BDE8A3
:10515000F88F4CB1206838B1564503D829687A1ABF
:10516000B24203D20920F2E70E20F0E7494432466A
:10517000FBF7DAF9286830442860E7E72DE9F843BF
:105180009846089C91460D46060001D0012000E09B
:1051900000208DF80000234642464946684602F04A
:1051A000BCFD070006D17EB12068A8EB0001A94232
:1051B00002D20920BDE8F88348442A463146FBF76D
:1051C000B3F92068284420603846F3E730B58FB043
:1051D0000024054607949DF81C001C2120F00F00B8
:1051E000401C20F0F00010308DF81C009DF81D00D0
:1051F00020F00F00401C20F0F00010308DF81D0052
:105200009DF81E0020F00600801C8DF81E006846E8
:10521000FBF7A3F99DF80000019440F012008DF80F
:10522000000007A8CDE9044003940694A87C8DF8FB
:105230003A0041F22450ADF838000D949DF8340046
:10524000142120F00F00401C20F0F00010308DF8E9
:1052500034009DF8350020F0FF008DF835009DF8F2
:10526000360020F00600801C20F019008DF8360072
:1052700008A8FBF772F90EA808900DA80990012064
:10528000ADF82800ADF82A40ADF82C000C94288821
:1052900005F10A0308AA694601F0E8FC0FB030BD29
:1052A00010B50D280AD10848FFF7BAFD002809D02B
:1052B000A0F54051023905D0082803D0BDE81040C0
:1052C000FCF7B0B810BD000078230020024B9B69AA
:1052D000002B00D0184770470C21002005494FF0E3
:1052E000FF32082841F8202002D3084480F84820E3
:1052F00070470000D0230020F0B54FF0FF3512B109
:105300000023082601E008230C260C4C05E000BF12
:1053100054F823707F1C04D05B1CB342F8D328469A
:10532000F0BD26185DB286F8305044F82310002AEC
:10533000F5D1E11881F84800F1E70000D023002002
:105340000249084490F9300070470000D023002043
:105350002DE9F05F2648C168F1B3DFF898B00E6818
:105360008146DBF800400769C078E11B21F07F45EA
:10537000ED1CB0B9DFF880804FF48030C8F84403EA
:10538000C8F804031120FBF7B3F91120FBF7BBF9B0
:105390004FF0010AC8F800A02F20FBF777F889F832
:1053A00003A0B54200D23546124BE8193C3320F039
:1053B0007F401860DBF800105A46091B21F07F413E
:1053C000001B20F07F40C91C81420FD91068186073
:1053D0002F20FBF75BF800E004E0BDE8F05F112050
:1053E000FBF79CB9BDE8F05F01F018BABDE8F09F8B
:1053F000BC20002004150140001001402DE9F843B5
:105400008846116881460025089E1C46174640467E
:10541000414502D10920BDE8F88301466B46484664
:1054200002F063FC9DF80000012803D078B10B2541
:105430002846F0E74CB123683BB1002EF8D03A463D
:1054400041464846B0470546F2E70E20E3E7002C08
:10545000EED000202060EBE7F0B405461E68002087
:10546000049C964202D10920F0BC7047002D02D066
:105470004FF0010701E04FF000078F551E6806F15D
:1054800001061E60F0D0002CEED02846A446F0BCE9
:1054900060472DE9F04117880646B81D14460D46B1
:1054A000984202D90C20BDE8F081318807220629F4
:1054B0000AD34FF4486C4FF6FF73614501D9994206
:1054C00002D17088062801D21046ECE7604501D968
:1054D0009842F9D1994203D0984201D08142F3D841
:1054E0000520E85520881221401C80B220802954D4
:1054F0002088401C80B220804119308802F0A2FB35
:105500002188084480B220804119708802F09AFBFB
:105510002188084420800020C5E7FBF783BF0000F6
:10552000F8B5134800F0C8F9114D0026114C0C3D98
:1055300030B16169B9B101208DF80000684611E011
:10554000287820B1616971B18DF80060F6E768785C
:1055500058B1A168084800220068FCF735F810B17E
:10556000A16901B188472E70F8BD6168F2E70000BB
:1055700098200020B42300204C7F0000027883781C
:10558000521C5B1ED2B283708A4200D1002202708C
:10559000704700002DE9F04100260125144C22E05F
:1055A0006068226900EBC607387805FA00F11142FD
:1055B00017D08A43226100F08BFD02463878E368F9
:1055C00005FA00F1194002FA00F3994209D17978FD
:1055D000012901D0012100E0002151407A6802B187
:1055E0009047761CF6B220788642D9D3BDE8F08188
:1055F000A82000200E4910B54A788C780023A242DA
:1056000012D0521CD2B24A70022A00D14B70084A02
:105610004B78183252F8232002600869104420F0B9
:105620007F400861012010BD0360002010BD000014
:10563000BC20002008B56A46FCF73CFA08B1FBF72D
:10564000F1FE009808BD000008B500220092054A4E
:105650006B461268FCF75BFC08B1FBF7E3FE0098B1
:1056600008BD0000F020002008B5002200926A4624
:10567000FCF7C0FC08B1FBF7D5FE009808BD08B5E3
:105680006A46FCF700FD08B1FBF7CCFE009808BDA8
:1056900008B56A46FCF762FD08B1FBF7C3FE009847
:1056A00008BD000008B5054A6B461268FCF76CFDA2
:1056B00008B1FBF7B7FE009808BD0000F4200020F9
:1056C00008B56A46FCF7C8FD08B1FBF7ABFE0098C9
:1056D00008BD00001CB501AA0092044A0CCAFCF7E0
:1056E00027FE08B1FBF79EFE01981CBDF4200020A8
:1056F00008B56A46FCF78BFE08B1FBF793FE0098ED
:1057000008BD08B56A46FCF79AFE08B1FBF78AFEA9
:10571000009808BD08B500220092054A6B46126841
:10572000FDF7D9FC08B1FBF77DFE009808BD00002D
:10573000F420002008B56A46FDF740FD08B1FBF7EC
:1057400071FE009808BD000038B5094C0022009297
:105750006B462268FDF780FE08B1FBF763FE0098F8
:1057600020B1A088FBF782FD002800D1009838BD49
:10577000F420002008B56B46034AFEF78FFE08B1FF
:10578000FBF750FE009808BDC02D002008B5044B63
:105790006A46FFF795F908B1FBF744FE009808BD8B
:1057A000C02D002008B5054A6B461268FFF7E5F9E1
:1057B00008B1FBF737FE009808BD0000C02D00209F
:1057C00008B56A46FFF74FFA08B1FBF72BFE0098C1
:1057D00008BD00002DE9F041124E07460125BD40ED
:1057E0003068FBF731FF00280DD10F4C20692842AB
:1057F00007D1384600F06CFC0028E06805D028434B
:1058000004E0A8432061BDE8F081A843E06020697E
:1058100028432061A1683068BDE8F0410022FBF711
:10582000D3BE0000A07F0000A820002030B514687F
:10583000651C8D4204D8005D18701068401C106013
:1058400030BD0000F8B51B4C2078002830D020690E
:1058500028B10026E06820B1002526B111E001261C
:10586000F8E70125F9E7684601F02AFB052803D08F
:1058700020B1FBF7D7FD04E0012602E02169009882
:1058800088478DB96088ADF800006946A06801F0CE
:1058900039F8052803D020B1FBF7C4FD04E0012549
:1058A00002E0D4E902018847002EDCD0002DD4D0DC
:1058B000F8BD000050210020054940880A88904228
:1058C00004D34988884201D80120704700207047DE
:1058D0009020002030B51488E51C9D4201D90C2091
:1058E00030BD02250D5513881C245B1C9BB2138010
:1058F000CC5413885B1C9BB21380012807D002286C
:1059000007D0032807D0042807D0072030BD002087
:1059100004E0012002E0CD5401E00320C8541088C7
:10592000401C1080002030BD30B58FB005461C21D2
:105930006846FAF712FE00249DF80000019440F03A
:105940000A008DF800000394049405940694A87C42
:105950008DF8360041F22550ADF834000C949DF8D6
:105960003000142120F00F00401C20F0F000103017
:105970008DF830009DF8310020F00F00401C20F021
:10598000F00010308DF831009DF8320020F0060054
:10599000801C20F019008DF8320007A8FAF7DDFD11
:1059A0000DA807900CA808900120ADF82400ADF8D0
:1059B0002640ADF828000B942888AB1C07AA69463E
:1059C00001F054F90FB030BD10B5064B00204FF474
:1059D00000221C1F11B11A60206010BD22601860E7
:1059E00010BD00000C0500502DE9FC471E460A9C26
:1059F0001746884681462588234602F037F9002855
:105A000008D120883346CDE900503A464146484601
:105A1000FFF782FBBDE8FC87FFB581B01D46164647
:105A20000A9C074623462A46314602A802F02DF971
:105A3000002807D12B4632460094BDF8081038469E
:105A4000FFF79CFB05B0F0BDFFB581B01D461646C3
:105A50000A9C074623462A46314602A802F05DF911
:105A6000002807D12B46324600949DF8081038468E
:105A7000FFF784FB05B0F0BD2DE9F047DFF8ACA0DF
:105A8000DAF80C009AF8004080469AF80460DAF8D8
:105A90000890DAF810703AE009EBC4052A7833E090
:105AA00002EB42016B68521C03EBC101AB78D2B22E
:105AB000934200D100220B78022B02D0032B23D17A
:105AC0001FE0D1F804C00346014603E0614503D05E
:105AD0000B46C969C1B1F9E7B1B18B4205D1C069C3
:105AE00018B9134F0126BE600027D1F800C0C9695C
:105AF000D96149B10B6863440B6005E00174C0696A
:105B000000E000210028F9D169789142C8D1641ED3
:105B1000E4B2C1D2CAE903078AF80460404502D062
:105B20000120BDE8F0870020FBE70000BC2000203A
:105B3000001001402DE9F04705462F480026804619
:105B40000778D0F80C904BE0D8F8080000EBC704B9
:105B500040E002D02846ED691EE02078616800EB45
:105B60004002401CC0B201EBC2012070A2789042FA
:105B700000D126700A784868012A2DD1027C5ABBD0
:105B80008A684260CA6882600A69C2604969816144
:105B900098F8041001B146604268D8F81030DFF878
:105BA0005CC0D11A21F07F41614502D28268114464
:105BB00006E0991A826821F07F418A4202D9511A7F
:105BC000016000E006604660012186600174C661E4
:105BD00001F05EFE002DBCD1207861788842BCD1F6
:105BE0007F1EFFB2B0D2D8F80C10494502D0012078
:105BF000BDE8F0870020FBE7BC200020FFFF7F000E
:105C000038B50D4C207808B1002038BD0125AB0215
:105C10000A4A0BA100200095FAF7D6FD38B90020FA
:105C20001023094A09A10090FAF7A6FD08B108203F
:105C300038BD2570E8E70000E02000207324002034
:105C40004E6F726D616C000073280020496E707594
:105C5000740000000FB408B504A900916A460399C6
:105C6000FAF71AFE01B05DF814FB000000200125D0
:105C70009EB0032605FA00F111F4602F04D08100D4
:105C800001F1A041C1F80067401C2028F2D3484927
:105C90004FF4602008600024081D04602346454A34
:105CA00005212046FBF748FC08B1FBF7BBFB40F29F
:105CB000666201214048FBF76BFB08B1FBF7B2FBC2
:105CC000FFF7C8F89DF80800072220F00F00401CDD
:105CD00020F0F00010308DF8080038A102A800F084
:105CE00009FF08B1FBF79EFB00945020ADF80000BF
:105CF000A0200194ADF80200ADF804404FF4C87044
:105D0000ADF80600684600F055FF08B1FBF78AFBC6
:105D10002C48009069462C48FFF738F808B1FBF78B
:105D200081FB2A48382100681C902748807C8DF828
:105D300072006846FAF711FC02208DF800008DF819
:105D4000025006208DF8030038210EA8FAF705FC52
:105D50001CA81390ADF848500EA96846FBF742FD09
:105D600008B1FBF75FFB1C216846FAF7F6FB4FF41E
:105D70002020CDE90040801002901548059015487C
:105D80008DF80C600690ADF80E408DF81040684616
:105D9000FBF7B0FD08B1FBF745FBFBF727FA00BFA7
:105DA00000F08EFD0028FBD0FBF73CFBF8E700007D
:105DB0000805005068210020842000204564647993
